{
  "transactions": [
    {
      "hash": "0x575118d97f6af1bfc5d20be06bc547241989be5dd219ce97ea81ac4ce2f0ca9e",
      "transactionType": "CREATE",
      "contractName": "Enfernous",
      "contractAddress": "0xF0FA7f470d6aBDD484C922360027ae81692C7832",
      "function": null,
      "arguments": [
        "0xAFDeB2cd4a2d2bd72e42e7F638846C680dF9574d",
        "0"
      ],
      "rpc": "https://goerli.infura.io/v3/99b6a57b525c435e805663241b1866d9",
      "transaction": {
        "type": "0x02",
        "from": "0xdead8d41881c82b9fc393d812239f41f3c943a37",
        "gas": "0x47b2f",
        "value": "0x0",
        "data": "0x60c06040526000805534801561001457600080fd5b506040516103c53803806103c583398101604081905261003391610049565b6001600160a01b0390911660805260a052610083565b6000806040838503121561005c57600080fd5b82516001600160a01b038116811461007357600080fd5b6020939093015192949293505050565b60805160a0516103136100b26000396000505060008181607b01528181610173015261021f01526103136000f3fe608060405234801561001057600080fd5b506004361061002b5760003560e01c8063a0712d6814610030575b600080fd5b61004361003e366004610295565b610045565b005b6040517efdd58e0000000000000000000000000000000000000000000000000000000081523360048201526001602482015281907f000000000000000000000000000000000000000000000000000000000000000073ffffffffffffffffffffffffffffffffffffffff169062fdd58e90604401602060405180830381865afa1580156100d6573d6000803e3d6000fd5b505050506040513d601f19601f820116820180604052508101906100fa91906102ae565b101561010557600080fd5b6102008160005461011691906102c7565b111561012157600080fd5b8060008082825461013291906102c7565b90915550506040517ff5298aca00000000000000000000000000000000000000000000000000000000815233600482015260016024820152604481018290527f000000000000000000000000000000000000000000000000000000000000000073ffffffffffffffffffffffffffffffffffffffff169063f5298aca90606401600060405180830381600087803b1580156101cc57600080fd5b505af11580156101e0573d6000803e3d6000fd5b50506040517f156e29f600000000000000000000000000000000000000000000000000000000815233600482015261029a6024820152604481018490527f000000000000000000000000000000000000000000000000000000000000000073ffffffffffffffffffffffffffffffffffffffff16925063156e29f69150606401600060405180830381600087803b15801561027a57600080fd5b505af115801561028e573d6000803e3d6000fd5b5050505050565b6000602082840312156102a757600080fd5b5035919050565b6000602082840312156102c057600080fd5b5051919050565b60008219821115610301577f4e487b7100000000000000000000000000000000000000000000000000000000600052601160045260246000fd5b50019056fea164736f6c634300080f000a000000000000000000000000afdeb2cd4a2d2bd72e42e7f638846c680df9574d0000000000000000000000000000000000000000000000000000000000000000",
        "nonce": "0x1f3",
        "accessList": []
      },
      "additionalContracts": []
    },
    {
      "hash": "0x7752749a093e2aa685164849e3b14f3e9dc8b83d0bf0389caca119fde4a77db6",
      "transactionType": "CALL",
      "contractName": "ZooOfNeuralAutomata",
      "contractAddress": "0xAFDeB2cd4a2d2bd72e42e7F638846C680dF9574d",
      "function": "newToken(uint256,(string,string,string,string,string,string,string,string),address,address,string)",
      "arguments": [
        "666",
        "(0, \"#000\", \"#BA0000\", \"#FF9B00\", [[-0.521,0.882,-0.378],[-0.85,0.164,-0.476],[-0.743,0.721,0.902]], return -1/pow(2.5, (pow(x, 4)))+1;, return random(1);, )",
        "0xF0FA7f470d6aBDD484C922360027ae81692C7832",
        "0x0000000000000000000000000000000000000000",
        "{\"name\":\"Enfernous\",\"image\":\"ipfs://Qmf6BPQqKyShvcPibTxchQLU8H6T1MoRyTERBGBeMnXFqm\",\"animation_url\":"
      ],
      "rpc": "https://goerli.infura.io/v3/99b6a57b525c435e805663241b1866d9",
      "transaction": {
        "type": "0x02",
        "from": "0xdead8d41881c82b9fc393d812239f41f3c943a37",
        "to": "0xafdeb2cd4a2d2bd72e42e7f638846c680df9574d",
        "gas": "0x96156",
        "value": "0x0",
        "data": "0x59c9ec74000000000000000000000000000000000000000000000000000000000000029a00000000000000000000000000000000000000000000000000000000000000a0000000000000000000000000f0fa7f470d6abdd484c922360027ae81692c7832000000000000000000000000000000000000000000000000000000000000000000000000000000000000000000000000000000000000000000000000000003e000000000000000000000000000000000000000000000000000000000000001000000000000000000000000000000000000000000000000000000000000000140000000000000000000000000000000000000000000000000000000000000018000000000000000000000000000000000000000000000000000000000000001c00000000000000000000000000000000000000000000000000000000000000200000000000000000000000000000000000000000000000000000000000000028000000000000000000000000000000000000000000000000000000000000002e000000000000000000000000000000000000000000000000000000000000003200000000000000000000000000000000000000000000000000000000000000001300000000000000000000000000000000000000000000000000000000000000000000000000000000000000000000000000000000000000000000000000000062223303030220000000000000000000000000000000000000000000000000000000000000000000000000000000000000000000000000000000000000000000922234241303030302200000000000000000000000000000000000000000000000000000000000000000000000000000000000000000000000000000000000009222346463942303022000000000000000000000000000000000000000000000000000000000000000000000000000000000000000000000000000000000000415b5b2d302e3532312c302e3838322c2d302e3337385d2c5b2d302e38352c302e3136342c2d302e3437365d2c5b2d302e3734332c302e3732312c302e3930325d5d00000000000000000000000000000000000000000000000000000000000000000000000000000000000000000000000000000000000000000000000000002272657475726e202d312f706f7728322e352c2028706f7728782c20342929292b313b000000000000000000000000000000000000000000000000000000000000000000000000000000000000000000000000000000000000000000000000001172657475726e2072616e646f6d2831293b000000000000000000000000000000000000000000000000000000000000000000000000000000000000000000000000000000000000000000000000000000000000000000000000000000000000647b226e616d65223a22456e6665726e6f7573222c22696d616765223a22697066733a2f2f516d6636425051714b795368766350696254786368514c5538483654314d6f5279544552424742654d6e5846716d222c22616e696d6174696f6e5f75726c223a00000000000000000000000000000000000000000000000000000000",
        "nonce": "0x1f4",
        "accessList": []
      },
      "additionalContracts": []
    },
    {
      "hash": "0xcd0d1b46607646083a1545e1f2e5d0b26adb7cfef83f06c3602b4ac078a1e589",
      "transactionType": "CALL",
      "contractName": "ZooOfNeuralAutomata",
      "contractAddress": "0xAFDeB2cd4a2d2bd72e42e7F638846C680dF9574d",
      "function": "updateBurner(uint256,address)",
      "arguments": [
        "1",
        "0xF0FA7f470d6aBDD484C922360027ae81692C7832"
      ],
      "rpc": "https://goerli.infura.io/v3/99b6a57b525c435e805663241b1866d9",
      "transaction": {
        "type": "0x02",
        "from": "0xdead8d41881c82b9fc393d812239f41f3c943a37",
        "to": "0xafdeb2cd4a2d2bd72e42e7f638846c680df9574d",
        "gas": "0x10593",
        "value": "0x0",
        "data": "0x0777ca3d0000000000000000000000000000000000000000000000000000000000000001000000000000000000000000f0fa7f470d6abdd484c922360027ae81692c7832",
        "nonce": "0x1f5",
        "accessList": []
      },
      "additionalContracts": []
    }
  ],
  "receipts": [
    {
      "transactionHash": "0x575118d97f6af1bfc5d20be06bc547241989be5dd219ce97ea81ac4ce2f0ca9e",
      "transactionIndex": "0x0",
      "blockHash": "0x255dcced698bc34ee5341dc802a1d9371332dfc315ab8f14da99aa6108dfa71e",
      "blockNumber": "0x8011bf",
      "from": "0xDead8d41881c82b9fc393D812239F41f3C943a37",
      "to": null,
      "cumulativeGasUsed": "0x37273",
      "gasUsed": "0x37273",
      "contractAddress": "0xF0FA7f470d6aBDD484C922360027ae81692C7832",
      "logs": [],
      "status": "0x1",
      "logsBloom": "0x00000000000000000000000000000000000000000000000000000000000000000000000000000000000000000000000000000000000000000000000000000000000000000000000000000000000000000000000000000000000000000000000000000000000000000000000000000000000000000000000000000000000000000000000000000000000000000000000000000000000000000000000000000000000000000000000000000000000000000000000000000000000000000000000000000000000000000000000000000000000000000000000000000000000000000000000000000000000000000000000000000000000000000000000000000000",
      "type": "0x2",
      "effectiveGasPrice": "0xb2d05e12"
    },
    {
      "transactionHash": "0x7752749a093e2aa685164849e3b14f3e9dc8b83d0bf0389caca119fde4a77db6",
      "transactionIndex": "0x1",
      "blockHash": "0x255dcced698bc34ee5341dc802a1d9371332dfc315ab8f14da99aa6108dfa71e",
      "blockNumber": "0x8011bf",
      "from": "0xDead8d41881c82b9fc393D812239F41f3C943a37",
      "to": "0xAFDeB2cd4a2d2bd72e42e7F638846C680dF9574d",
      "cumulativeGasUsed": "0xa3cfa",
      "gasUsed": "0x6ca87",
      "contractAddress": null,
      "logs": [],
      "status": "0x1",
      "logsBloom": "0x00000000000000000000000000000000000000000000000000000000000000000000000000000000000000000000000000000000000000000000000000000000000000000000000000000000000000000000000000000000000000000000000000000000000000000000000000000000000000000000000000000000000000000000000000000000000000000000000000000000000000000000000000000000000000000000000000000000000000000000000000000000000000000000000000000000000000000000000000000000000000000000000000000000000000000000000000000000000000000000000000000000000000000000000000000000",
      "type": "0x2",
      "effectiveGasPrice": "0xb2d05e12"
    },
    {
      "transactionHash": "0xcd0d1b46607646083a1545e1f2e5d0b26adb7cfef83f06c3602b4ac078a1e589",
      "transactionIndex": "0x2",
      "blockHash": "0x255dcced698bc34ee5341dc802a1d9371332dfc315ab8f14da99aa6108dfa71e",
      "blockNumber": "0x8011bf",
      "from": "0xDead8d41881c82b9fc393D812239F41f3C943a37",
      "to": "0xAFDeB2cd4a2d2bd72e42e7F638846C680dF9574d",
      "cumulativeGasUsed": "0xafa5a",
      "gasUsed": "0xbd60",
      "contractAddress": null,
      "logs": [],
      "status": "0x1",
      "logsBloom": "0x00000000000000000000000000000000000000000000000000000000000000000000000000000000000000000000000000000000000000000000000000000000000000000000000000000000000000000000000000000000000000000000000000000000000000000000000000000000000000000000000000000000000000000000000000000000000000000000000000000000000000000000000000000000000000000000000000000000000000000000000000000000000000000000000000000000000000000000000000000000000000000000000000000000000000000000000000000000000000000000000000000000000000000000000000000000",
      "type": "0x2",
      "effectiveGasPrice": "0xb2d05e12"
    }
  ],
  "libraries": [],
  "pending": [],
  "path": "/home/arch/zona/broadcast/NCA.s.sol/5/run-latest.json",
  "returns": {},
  "timestamp": 1674934152,
  "chain": 5,
  "multi": false,
  "commit": "888c555"
}