{
  "transactions": [
    {
      "hash": "0xec8f88a66445f64016f9f3c78d188b8428e4bb39937c57b1f30191964dfea364",
      "transactionType": "CALL",
      "contractName": "ZooOfNeuralAutomata",
      "contractAddress": "0xAFDeB2cd4a2d2bd72e42e7F638846C680dF9574d",
      "function": "newToken(uint256,(string,string,string,string,string,string,string,string),address,address,string)",
      "arguments": [
        "3",
        "(0, \"#F1F1F1\", \"#DCDCDC\", \"#ECFF00\", [[-0.423,0.26,-0.761],[-0.994,0.629,0.848],[-0.189,-0.318,-0.922]], return sin(x);, return random(1);, )",
        "0xDead8d41881c82b9fc393D812239F41f3C943a37",
        "0x0000000000000000000000000000000000000000",
        "{\"name\":\"Sundrops\",\"image\":\"ipfs://QmYH9hSNKx7S3uKEmmh9s9zTP2LV9DDvEJ41iTTRyp7Ppn\",\"animation_url\":"
      ],
      "rpc": "https://goerli.infura.io/v3/99b6a57b525c435e805663241b1866d9",
      "transaction": {
        "type": "0x02",
        "from": "0xdead8d41881c82b9fc393d812239f41f3c943a37",
        "to": "0xafdeb2cd4a2d2bd72e42e7f638846c680df9574d",
        "gas": "0x87000",
        "value": "0x0",
        "data": "0x59c9ec74000000000000000000000000000000000000000000000000000000000000000300000000000000000000000000000000000000000000000000000000000000a0000000000000000000000000dead8d41881c82b9fc393d812239f41f3c943a37000000000000000000000000000000000000000000000000000000000000000000000000000000000000000000000000000000000000000000000000000003c000000000000000000000000000000000000000000000000000000000000001000000000000000000000000000000000000000000000000000000000000000140000000000000000000000000000000000000000000000000000000000000018000000000000000000000000000000000000000000000000000000000000001c00000000000000000000000000000000000000000000000000000000000000200000000000000000000000000000000000000000000000000000000000000028000000000000000000000000000000000000000000000000000000000000002c000000000000000000000000000000000000000000000000000000000000003000000000000000000000000000000000000000000000000000000000000000001300000000000000000000000000000000000000000000000000000000000000000000000000000000000000000000000000000000000000000000000000000092223463146314631220000000000000000000000000000000000000000000000000000000000000000000000000000000000000000000000000000000000000922234443444344432200000000000000000000000000000000000000000000000000000000000000000000000000000000000000000000000000000000000009222345434646303022000000000000000000000000000000000000000000000000000000000000000000000000000000000000000000000000000000000000425b5b2d302e3432332c302e32362c2d302e3736315d2c5b2d302e3939342c302e3632392c302e3834385d2c5b2d302e3138392c2d302e3331382c2d302e3932325d5d000000000000000000000000000000000000000000000000000000000000000000000000000000000000000000000000000000000000000000000000000e72657475726e2073696e2878293b000000000000000000000000000000000000000000000000000000000000000000000000000000000000000000000000001172657475726e2072616e646f6d2831293b000000000000000000000000000000000000000000000000000000000000000000000000000000000000000000000000000000000000000000000000000000000000000000000000000000000000637b226e616d65223a2253756e64726f7073222c22696d616765223a22697066733a2f2f516d59483968534e4b78375333754b456d6d683973397a5450324c5639444476454a34316954545279703750706e222c22616e696d6174696f6e5f75726c223a0000000000000000000000000000000000000000000000000000000000",
        "nonce": "0x1ef",
        "accessList": []
      },
      "additionalContracts": []
    },
    {
      "hash": "0x48d8f68e9f09ec3ea6aba430330847a7fd05d20883f3887598757fbc6e9607ef",
      "transactionType": "CALL",
      "contractName": "ZooOfNeuralAutomata",
      "contractAddress": "0xAFDeB2cd4a2d2bd72e42e7F638846C680dF9574d",
      "function": "mint(address,uint256,uint256)",
      "arguments": [
        "0xDead8d41881c82b9fc393D812239F41f3C943a37",
        "3",
        "10"
      ],
      "rpc": "https://goerli.infura.io/v3/99b6a57b525c435e805663241b1866d9",
      "transaction": {
        "type": "0x02",
        "from": "0xdead8d41881c82b9fc393d812239f41f3c943a37",
        "to": "0xafdeb2cd4a2d2bd72e42e7f638846c680df9574d",
        "gas": "0x10a9c",
        "value": "0x0",
        "data": "0x156e29f6000000000000000000000000dead8d41881c82b9fc393d812239f41f3c943a370000000000000000000000000000000000000000000000000000000000000003000000000000000000000000000000000000000000000000000000000000000a",
        "nonce": "0x1f0",
        "accessList": []
      },
      "additionalContracts": []
    },
    {
      "hash": "0x52671d5225cb3cb671dbd1c5f920ba5d65c46d03e0d9953fd3c67d5ca9fb52c9",
      "transactionType": "CALL",
      "contractName": "ZooOfNeuralAutomata",
      "contractAddress": "0xAFDeB2cd4a2d2bd72e42e7F638846C680dF9574d",
      "function": "updateMinter(uint256,address)",
      "arguments": [
        "3",
        "0xdEad000000000000000000000000000000000000"
      ],
      "rpc": "https://goerli.infura.io/v3/99b6a57b525c435e805663241b1866d9",
      "transaction": {
        "type": "0x02",
        "from": "0xdead8d41881c82b9fc393d812239f41f3c943a37",
        "to": "0xafdeb2cd4a2d2bd72e42e7f638846c680df9574d",
        "gas": "0xa854",
        "value": "0x0",
        "data": "0x03409d6b0000000000000000000000000000000000000000000000000000000000000003000000000000000000000000dead000000000000000000000000000000000000",
        "nonce": "0x1f1",
        "accessList": []
      },
      "additionalContracts": []
    },
    {
      "hash": "0x03a3029a92e583e31eb7e6d1ca4003cd47622a0bb4789930feaf758201d4c7f6",
      "transactionType": "CALL",
      "contractName": "ZooOfNeuralAutomata",
      "contractAddress": "0xAFDeB2cd4a2d2bd72e42e7F638846C680dF9574d",
      "function": "transferOwnership(address)",
      "arguments": [
        "0xDead8d41881c82b9fc393D812239F41f3C943a37"
      ],
      "rpc": "https://goerli.infura.io/v3/99b6a57b525c435e805663241b1866d9",
      "transaction": {
        "type": "0x02",
        "from": "0xdead8d41881c82b9fc393d812239f41f3c943a37",
        "to": "0xafdeb2cd4a2d2bd72e42e7f638846c680df9574d",
        "gas": "0x92d0",
        "value": "0x0",
        "data": "0xf2fde38b000000000000000000000000dead8d41881c82b9fc393d812239f41f3c943a37",
        "nonce": "0x1f2",
        "accessList": []
      },
      "additionalContracts": []
    }
  ],
  "receipts": [
    {
      "transactionHash": "0xec8f88a66445f64016f9f3c78d188b8428e4bb39937c57b1f30191964dfea364",
      "transactionIndex": "0x4",
      "blockHash": "0x9ce44e5d02685620f46da8f75d931fa79adeaa5128cdb6a627b4ad62605ecbc1",
      "blockNumber": "0x7fbb5c",
      "from": "0xDead8d41881c82b9fc393D812239F41f3C943a37",
      "to": "0xAFDeB2cd4a2d2bd72e42e7F638846C680dF9574d",
      "cumulativeGasUsed": "0x89f4d",
      "gasUsed": "0x61bce",
      "contractAddress": null,
      "logs": [],
      "status": "0x1",
      "logsBloom": "0x00000000000000000000000000000000000000000000000000000000000000000000000000000000000000000000000000000000000000000000000000000000000000000000000000000000000000000000000000000000000000000000000000000000000000000000000000000000000000000000000000000000000000000000000000000000000000000000000000000000000000000000000000000000000000000000000000000000000000000000000000000000000000000000000000000000000000000000000000000000000000000000000000000000000000000000000000000000000000000000000000000000000000000000000000000000",
      "type": "0x2",
      "effectiveGasPrice": "0xb2d05e0a"
    },
    {
      "transactionHash": "0x48d8f68e9f09ec3ea6aba430330847a7fd05d20883f3887598757fbc6e9607ef",
      "transactionIndex": "0x5",
      "blockHash": "0x9ce44e5d02685620f46da8f75d931fa79adeaa5128cdb6a627b4ad62605ecbc1",
      "blockNumber": "0x7fbb5c",
      "from": "0xDead8d41881c82b9fc393D812239F41f3C943a37",
      "to": "0xAFDeB2cd4a2d2bd72e42e7F638846C680dF9574d",
      "cumulativeGasUsed": "0x96053",
      "gasUsed": "0xc106",
      "contractAddress": null,
      "logs": [
        {
          "address": "0xAFDeB2cd4a2d2bd72e42e7F638846C680dF9574d",
          "topics": [
            "0xc3d58168c5ae7397731d063d5bbf3d657854427343f4c083240f7aacaa2d0f62",
            "0x000000000000000000000000dead8d41881c82b9fc393d812239f41f3c943a37",
            "0x0000000000000000000000000000000000000000000000000000000000000000",
            "0x000000000000000000000000dead8d41881c82b9fc393d812239f41f3c943a37"
          ],
          "data": "0x0000000000000000000000000000000000000000000000000000000000000003000000000000000000000000000000000000000000000000000000000000000a",
          "blockHash": "0x9ce44e5d02685620f46da8f75d931fa79adeaa5128cdb6a627b4ad62605ecbc1",
          "blockNumber": "0x7fbb5c",
          "transactionHash": "0x48d8f68e9f09ec3ea6aba430330847a7fd05d20883f3887598757fbc6e9607ef",
          "transactionIndex": "0x5",
          "logIndex": "0x4",
          "removed": false
        }
      ],
      "status": "0x1",
      "logsBloom": "0x00000000000000000000000000000000000000000000000000000000000000000000000000000000000000000004000000000000000000000000000000002000000000001000000000000000000000000000000000000000000000000000000000000000020000000000000000000800000000001000040000000000000000000000000000000000000000000000000000000000000000000000000000000000000000000000000002000000000000000000000000000000000000000000000000000000000000000080000000000000000000000008000000000000000020000000000000000000000000000000000000000000000000000000080000000000",
      "type": "0x2",
      "effectiveGasPrice": "0xb2d05e0a"
    },
    {
      "transactionHash": "0x52671d5225cb3cb671dbd1c5f920ba5d65c46d03e0d9953fd3c67d5ca9fb52c9",
      "transactionIndex": "0x6",
      "blockHash": "0x9ce44e5d02685620f46da8f75d931fa79adeaa5128cdb6a627b4ad62605ecbc1",
      "blockNumber": "0x7fbb5c",
      "from": "0xDead8d41881c82b9fc393D812239F41f3C943a37",
      "to": "0xAFDeB2cd4a2d2bd72e42e7F638846C680dF9574d",
      "cumulativeGasUsed": "0x9da32",
      "gasUsed": "0x79df",
      "contractAddress": null,
      "logs": [],
      "status": "0x1",
      "logsBloom": "0x00000000000000000000000000000000000000000000000000000000000000000000000000000000000000000000000000000000000000000000000000000000000000000000000000000000000000000000000000000000000000000000000000000000000000000000000000000000000000000000000000000000000000000000000000000000000000000000000000000000000000000000000000000000000000000000000000000000000000000000000000000000000000000000000000000000000000000000000000000000000000000000000000000000000000000000000000000000000000000000000000000000000000000000000000000000",
      "type": "0x2",
      "effectiveGasPrice": "0xb2d05e0a"
    },
    {
      "transactionHash": "0x03a3029a92e583e31eb7e6d1ca4003cd47622a0bb4789930feaf758201d4c7f6",
      "transactionIndex": "0x7",
      "blockHash": "0x9ce44e5d02685620f46da8f75d931fa79adeaa5128cdb6a627b4ad62605ecbc1",
      "blockNumber": "0x7fbb5c",
      "from": "0xDead8d41881c82b9fc393D812239F41f3C943a37",
      "to": "0xAFDeB2cd4a2d2bd72e42e7F638846C680dF9574d",
      "cumulativeGasUsed": "0xa3e95",
      "gasUsed": "0x6463",
      "contractAddress": null,
      "logs": [
        {
          "address": "0xAFDeB2cd4a2d2bd72e42e7F638846C680dF9574d",
          "topics": [
            "0x8be0079c531659141344cd1fd0a4f28419497f9722a3daafe3b4186f6b6457e0",
            "0x000000000000000000000000dead8d41881c82b9fc393d812239f41f3c943a37",
            "0x000000000000000000000000dead8d41881c82b9fc393d812239f41f3c943a37"
          ],
          "data": "0x",
          "blockHash": "0x9ce44e5d02685620f46da8f75d931fa79adeaa5128cdb6a627b4ad62605ecbc1",
          "blockNumber": "0x7fbb5c",
          "transactionHash": "0x03a3029a92e583e31eb7e6d1ca4003cd47622a0bb4789930feaf758201d4c7f6",
          "transactionIndex": "0x7",
          "logIndex": "0x5",
          "removed": false
        }
      ],
      "status": "0x1",
      "logsBloom": "0x00000000000000000000000000000000000000000000000000800000000000000000000000000000000000000004000000000000000000000000000000000000000000001000000000000000000000000001000000000000000000000000000000000000000000000000000000000000000000001000040000000000000000400000000000000000000000000000000000000000000000000000000000000000000000000000000002000000000000000000000000000000000000000000000000000000000000000080000000000000000000000000000000000000000000000000000000000000000000000000000000000000000000000000000000000000",
      "type": "0x2",
      "effectiveGasPrice": "0xb2d05e0a"
    }
  ],
  "libraries": [],
  "pending": [],
  "path": "/home/arch/zona/broadcast/NCA.s.sol/5/run-latest.json",
  "returns": {},
  "timestamp": 1674608596,
  "chain": 5,
  "multi": false,
  "commit": "888c555"
}