{
  "transactions": [
    {
      "hash": "0x1953e7b4566ed8e754c0e8a650a4004611afc634142d3ae52403fa1adc1d280a",
      "transactionType": "CALL",
      "contractName": "ZooOfNeuralAutomata",
      "contractAddress": "0xAFDeB2cd4a2d2bd72e42e7F638846C680dF9574d",
      "function": "updateMinter(uint256,address)",
      "arguments": [
        "1",
        "0xDead8d41881c82b9fc393D812239F41f3C943a37"
      ],
      "rpc": "https://goerli.infura.io/v3/99b6a57b525c435e805663241b1866d9",
      "transaction": {
        "type": "0x02",
        "from": "0xdead8d41881c82b9fc393d812239f41f3c943a37",
        "to": "0xafdeb2cd4a2d2bd72e42e7f638846c680df9574d",
        "gas": "0xa97f",
        "value": "0x0",
        "data": "0x03409d6b0000000000000000000000000000000000000000000000000000000000000001000000000000000000000000dead8d41881c82b9fc393d812239f41f3c943a37",
        "nonce": "0x1f7",
        "accessList": []
      },
      "additionalContracts": []
    },
    {
      "hash": "0x57d7de62d02d5c2f577d26244ea21ada6df58bc8ffc4a860efb05724cbe5ab63",
      "transactionType": "CALL",
      "contractName": "ZooOfNeuralAutomata",
      "contractAddress": "0xAFDeB2cd4a2d2bd72e42e7F638846C680dF9574d",
      "function": "mint(address,uint256,uint256)",
      "arguments": [
        "0xDead8d41881c82b9fc393D812239F41f3C943a37",
        "1",
        "100"
      ],
      "rpc": "https://goerli.infura.io/v3/99b6a57b525c435e805663241b1866d9",
      "transaction": {
        "type": "0x02",
        "from": "0xdead8d41881c82b9fc393d812239f41f3c943a37",
        "to": "0xafdeb2cd4a2d2bd72e42e7f638846c680df9574d",
        "gas": "0x10a9c",
        "value": "0x0",
        "data": "0x156e29f6000000000000000000000000dead8d41881c82b9fc393d812239f41f3c943a3700000000000000000000000000000000000000000000000000000000000000010000000000000000000000000000000000000000000000000000000000000064",
        "nonce": "0x1f8",
        "accessList": []
      },
      "additionalContracts": []
    }
  ],
  "receipts": [],
  "libraries": [],
  "pending": [
    "0x1953e7b4566ed8e754c0e8a650a4004611afc634142d3ae52403fa1adc1d280a",
    "0x57d7de62d02d5c2f577d26244ea21ada6df58bc8ffc4a860efb05724cbe5ab63"
  ],
  "path": "/home/arch/zona/broadcast/NCA.s.sol/5/run-latest.json",
  "returns": {},
  "timestamp": 1674934504,
  "chain": 5,
  "multi": false,
  "commit": "888c555"
}