{
  "transactions": [
    {
      "hash": "0x282547f7a4226e575cf0d42743d9e10f8ccc8b7be032d34c483a138e37e4e2c0",
      "transactionType": "CREATE",
      "contractName": "Spaces",
      "contractAddress": "0x3DFA00114F8678CE0de8987CEE6E33B99102806f",
      "function": null,
      "arguments": [
        "0xDead8d41881c82b9fc393D812239F41f3C943a37",
        "0xAFDeB2cd4a2d2bd72e42e7F638846C680dF9574d",
        "1675383246"
      ],
      "rpc": "https://goerli.infura.io/v3/99b6a57b525c435e805663241b1866d9",
      "transaction": {
        "type": "0x02",
        "from": "0xdead8d41881c82b9fc393d812239f41f3c943a37",
        "gas": "0x66440",
        "value": "0x0",
        "data": "0x60e060405234801561001057600080fd5b506040516105c43803806105c483398101604081905261002f916100be565b600080546001600160a01b0319166001600160a01b03851690811782556040518592907f8be0079c531659141344cd1fd0a4f28419497f9722a3daafe3b4186f6b6457e0908290a3506001600160a01b03821660805260a081905261009681611c206100fa565b60c05250610120915050565b80516001600160a01b03811681146100b957600080fd5b919050565b6000806000606084860312156100d357600080fd5b6100dc846100a2565b92506100ea602085016100a2565b9150604084015190509250925092565b6000821982111561011b57634e487b7160e01b600052601160045260246000fd5b500190565b60805160a05160c05161046261016260003960008181609101526101f101526000818161011701526101a201526000818160cb01526102c501526104626000f3fe608060405234801561001057600080fd5b506004361061007d5760003560e01c806378e979251161005b57806378e97925146101125780638da5cb5b14610139578063c884ef8314610159578063f2fde38b1461018c57600080fd5b80631249c58b146100825780633197cbb61461008c57806344b170fe146100c6575b600080fd5b61008a61019f565b005b6100b37f000000000000000000000000000000000000000000000000000000000000000081565b6040519081526020015b60405180910390f35b6100ed7f000000000000000000000000000000000000000000000000000000000000000081565b60405173ffffffffffffffffffffffffffffffffffffffff90911681526020016100bd565b6100b37f000000000000000000000000000000000000000000000000000000000000000081565b6000546100ed9073ffffffffffffffffffffffffffffffffffffffff1681565b61017c610167366004610418565b60016020526000908152604090205460ff1681565b60405190151581526020016100bd565b61008a61019a366004610418565b610323565b427f00000000000000000000000000000000000000000000000000000000000000001115806101e5575060005473ffffffffffffffffffffffffffffffffffffffff1633145b6101ee57600080fd5b427f0000000000000000000000000000000000000000000000000000000000000000101561021b57600080fd5b3360009081526001602052604090205460ff161561023857600080fd5b3360008181526001602081905260409182902080547fffffffffffffffffffffffffffffffffffffffffffffffffffffffffffffff00168217905590517f156e29f60000000000000000000000000000000000000000000000000000000081526004808201939093526024810192909252604482015273ffffffffffffffffffffffffffffffffffffffff7f0000000000000000000000000000000000000000000000000000000000000000169063156e29f690606401600060405180830381600087803b15801561030957600080fd5b505af115801561031d573d6000803e3d6000fd5b50505050565b60005473ffffffffffffffffffffffffffffffffffffffff1633146103a8576040517f08c379a000000000000000000000000000000000000000000000000000000000815260206004820152600c60248201527f554e415554484f52495a45440000000000000000000000000000000000000000604482015260640160405180910390fd5b600080547fffffffffffffffffffffffff00000000000000000000000000000000000000001673ffffffffffffffffffffffffffffffffffffffff83169081178255604051909133917f8be0079c531659141344cd1fd0a4f28419497f9722a3daafe3b4186f6b6457e09190a350565b60006020828403121561042a57600080fd5b813573ffffffffffffffffffffffffffffffffffffffff8116811461044e57600080fd5b939250505056fea164736f6c634300080f000a000000000000000000000000dead8d41881c82b9fc393d812239f41f3c943a37000000000000000000000000afdeb2cd4a2d2bd72e42e7f638846c680df9574d0000000000000000000000000000000000000000000000000000000063dc51ce",
        "nonce": "0x207",
        "accessList": []
      },
      "additionalContracts": []
    },
    {
      "hash": "0xb53c86ceaf7b6616e4ba614b4b13702dba6a043fd10ba15beda4cfccd83d2f6f",
      "transactionType": "CALL",
      "contractName": "ZooOfNeuralAutomata",
      "contractAddress": "0xAFDeB2cd4a2d2bd72e42e7F638846C680dF9574d",
      "function": "newToken(uint256,(string,string,string,string,string,string,string,string),address,address,string)",
      "arguments": [
        "4",
        "(0, \"#2F003F\", \"#00214E\", \"#B6FF00\", [[-0.348,-0.805,-0.792],[-0.663,0.957,0.267],[-0.139,-0.728,0.527]], return sin(x);, return random(1);, )",
        "0x3DFA00114F8678CE0de8987CEE6E33B99102806f",
        "0x0000000000000000000000000000000000000000",
        "{\"name\":\"Spaces\",\"image\":\"ipfs://Qmf6BPQqKyShvcPibTxchQLU8H6T1MoRyTERBGBeMnXFqm\",\"animation_url\":"
      ],
      "rpc": "https://goerli.infura.io/v3/99b6a57b525c435e805663241b1866d9",
      "transaction": {
        "type": "0x02",
        "from": "0xdead8d41881c82b9fc393d812239f41f3c943a37",
        "to": "0xafdeb2cd4a2d2bd72e42e7f638846c680df9574d",
        "gas": "0x86fdf",
        "value": "0x0",
        "data": "0x59c9ec74000000000000000000000000000000000000000000000000000000000000000400000000000000000000000000000000000000000000000000000000000000a00000000000000000000000003dfa00114f8678ce0de8987cee6e33b99102806f000000000000000000000000000000000000000000000000000000000000000000000000000000000000000000000000000000000000000000000000000003c000000000000000000000000000000000000000000000000000000000000001000000000000000000000000000000000000000000000000000000000000000140000000000000000000000000000000000000000000000000000000000000018000000000000000000000000000000000000000000000000000000000000001c00000000000000000000000000000000000000000000000000000000000000200000000000000000000000000000000000000000000000000000000000000028000000000000000000000000000000000000000000000000000000000000002c000000000000000000000000000000000000000000000000000000000000003000000000000000000000000000000000000000000000000000000000000000001300000000000000000000000000000000000000000000000000000000000000000000000000000000000000000000000000000000000000000000000000000092223324630303346220000000000000000000000000000000000000000000000000000000000000000000000000000000000000000000000000000000000000922233030323134452200000000000000000000000000000000000000000000000000000000000000000000000000000000000000000000000000000000000009222342364646303022000000000000000000000000000000000000000000000000000000000000000000000000000000000000000000000000000000000000435b5b2d302e3334382c2d302e3830352c2d302e3739325d2c5b2d302e3636332c302e3935372c302e3236375d2c5b2d302e3133392c2d302e3732382c302e3532375d5d0000000000000000000000000000000000000000000000000000000000000000000000000000000000000000000000000000000000000000000000000e72657475726e2073696e2878293b000000000000000000000000000000000000000000000000000000000000000000000000000000000000000000000000001172657475726e2072616e646f6d2831293b000000000000000000000000000000000000000000000000000000000000000000000000000000000000000000000000000000000000000000000000000000000000000000000000000000000000617b226e616d65223a22537061636573222c22696d616765223a22697066733a2f2f516d6636425051714b795368766350696254786368514c5538483654314d6f5279544552424742654d6e5846716d222c22616e696d6174696f6e5f75726c223a00000000000000000000000000000000000000000000000000000000000000",
        "nonce": "0x208",
        "accessList": []
      },
      "additionalContracts": []
    },
    {
      "hash": "0x96c3cdef3f2b340a1ca02c749a377a796dac6b0197576b7e97762470d099c11d",
      "transactionType": "CALL",
      "contractName": "Spaces",
      "contractAddress": "0x3DFA00114F8678CE0de8987CEE6E33B99102806f",
      "function": "mint()",
      "arguments": [],
      "rpc": "https://goerli.infura.io/v3/99b6a57b525c435e805663241b1866d9",
      "transaction": {
        "type": "0x02",
        "from": "0xdead8d41881c82b9fc393d812239f41f3c943a37",
        "to": "0x3dfa00114f8678ce0de8987cee6e33b99102806f",
        "gas": "0x190bc",
        "value": "0x0",
        "data": "0x1249c58b",
        "nonce": "0x209",
        "accessList": []
      },
      "additionalContracts": []
    }
  ],
  "receipts": [
    {
      "transactionHash": "0x282547f7a4226e575cf0d42743d9e10f8ccc8b7be032d34c483a138e37e4e2c0",
      "transactionIndex": "0x3",
      "blockHash": "0x9247c9a9f25e07f06f062e9020e69a4d1caa1fdbd75e812153386f3323521cec",
      "blockNumber": "0x8089f6",
      "from": "0xDead8d41881c82b9fc393D812239F41f3C943a37",
      "to": null,
      "cumulativeGasUsed": "0x12ff9c",
      "gasUsed": "0x4eaa8",
      "contractAddress": "0x3DFA00114F8678CE0de8987CEE6E33B99102806f",
      "logs": [
        {
          "address": "0x3DFA00114F8678CE0de8987CEE6E33B99102806f",
          "topics": [
            "0x8be0079c531659141344cd1fd0a4f28419497f9722a3daafe3b4186f6b6457e0",
            "0x0000000000000000000000000000000000000000000000000000000000000000",
            "0x000000000000000000000000dead8d41881c82b9fc393d812239f41f3c943a37"
          ],
          "data": "0x",
          "blockHash": "0x9247c9a9f25e07f06f062e9020e69a4d1caa1fdbd75e812153386f3323521cec",
          "blockNumber": "0x8089f6",
          "transactionHash": "0x282547f7a4226e575cf0d42743d9e10f8ccc8b7be032d34c483a138e37e4e2c0",
          "transactionIndex": "0x3",
          "logIndex": "0x4",
          "removed": false
        }
      ],
      "status": "0x1",
      "logsBloom": "0x00000000000000000000000000000000000000000000000000800000000000000000000000000000000000000000000000000000000000000000000000000000000000000000000000000000000000000001000000000000000000000000000000000000020000000000000000000800000000001000040000000000000000400000000000000000000000000000000000000080000000000000000000000000000000000000000002000000000000000000000000000200000000000000000000000000000000000000000000000000000000000000000000000020000020000000000000000000000000000000000000000000000000000000000000000000",
      "type": "0x2",
      "effectiveGasPrice": "0xb2e3b725"
    },
    {
      "transactionHash": "0xb53c86ceaf7b6616e4ba614b4b13702dba6a043fd10ba15beda4cfccd83d2f6f",
      "transactionIndex": "0x4",
      "blockHash": "0x9247c9a9f25e07f06f062e9020e69a4d1caa1fdbd75e812153386f3323521cec",
      "blockNumber": "0x8089f6",
      "from": "0xDead8d41881c82b9fc393D812239F41f3C943a37",
      "to": "0xAFDeB2cd4a2d2bd72e42e7F638846C680dF9574d",
      "cumulativeGasUsed": "0x191b52",
      "gasUsed": "0x61bb6",
      "contractAddress": null,
      "logs": [],
      "status": "0x1",
      "logsBloom": "0x00000000000000000000000000000000000000000000000000000000000000000000000000000000000000000000000000000000000000000000000000000000000000000000000000000000000000000000000000000000000000000000000000000000000000000000000000000000000000000000000000000000000000000000000000000000000000000000000000000000000000000000000000000000000000000000000000000000000000000000000000000000000000000000000000000000000000000000000000000000000000000000000000000000000000000000000000000000000000000000000000000000000000000000000000000000",
      "type": "0x2",
      "effectiveGasPrice": "0xb2e3b725"
    },
    {
      "transactionHash": "0x96c3cdef3f2b340a1ca02c749a377a796dac6b0197576b7e97762470d099c11d",
      "transactionIndex": "0x5",
      "blockHash": "0x9247c9a9f25e07f06f062e9020e69a4d1caa1fdbd75e812153386f3323521cec",
      "blockNumber": "0x8089f6",
      "from": "0xDead8d41881c82b9fc393D812239F41f3C943a37",
      "to": "0x3DFA00114F8678CE0de8987CEE6E33B99102806f",
      "cumulativeGasUsed": "0x1a3d72",
      "gasUsed": "0x12220",
      "contractAddress": null,
      "logs": [
        {
          "address": "0xAFDeB2cd4a2d2bd72e42e7F638846C680dF9574d",
          "topics": [
            "0xc3d58168c5ae7397731d063d5bbf3d657854427343f4c083240f7aacaa2d0f62",
            "0x0000000000000000000000003dfa00114f8678ce0de8987cee6e33b99102806f",
            "0x0000000000000000000000000000000000000000000000000000000000000000",
            "0x000000000000000000000000dead8d41881c82b9fc393d812239f41f3c943a37"
          ],
          "data": "0x00000000000000000000000000000000000000000000000000000000000000040000000000000000000000000000000000000000000000000000000000000001",
          "blockHash": "0x9247c9a9f25e07f06f062e9020e69a4d1caa1fdbd75e812153386f3323521cec",
          "blockNumber": "0x8089f6",
          "transactionHash": "0x96c3cdef3f2b340a1ca02c749a377a796dac6b0197576b7e97762470d099c11d",
          "transactionIndex": "0x5",
          "logIndex": "0x5",
          "removed": false
        }
      ],
      "status": "0x1",
      "logsBloom": "0x00000100000000000000000000000000000000000000000000000000000000000000000000000000000000000004000000000000000000000000000000002000000000001000000000000000000000000000000000000000000000000000000000000000020000000000000000000800000000001000040000000000000000000000000000000000000000000000000000000000000000000000000000000000000000000000000802000000000000000000000000000000000000000000000000000000000000000080000000000000000000000008000000000000000020000000000000000000000000000000000000000400000000000000080000000000",
      "type": "0x2",
      "effectiveGasPrice": "0xb2e3b725"
    }
  ],
  "libraries": [],
  "pending": [],
  "path": "/home/arch/zona/broadcast/NCA.s.sol/5/run-latest.json",
  "returns": {},
  "timestamp": 1675383309,
  "chain": 5,
  "multi": false,
  "commit": "888c555"
}