{
  "transactions": [
    {
      "hash": "0x968546261f6c2b953eee9de1cd5ea94074f4a49769049464c97c7cdb96619d4d",
      "transactionType": "CREATE",
      "contractName": "Enfernous",
      "contractAddress": "0x3f6206BCA635B7Ab87BDf228E3c3055E19D64Db1",
      "function": null,
      "arguments": [
        "0xAFDeB2cd4a2d2bd72e42e7F638846C680dF9574d",
        "0"
      ],
      "rpc": "https://goerli.infura.io/v3/99b6a57b525c435e805663241b1866d9",
      "transaction": {
        "type": "0x02",
        "from": "0xdead8d41881c82b9fc393d812239f41f3c943a37",
        "gas": "0x4a4c6",
        "value": "0x0",
        "data": "0x60c06040526000805534801561001457600080fd5b506040516103eb3803806103eb83398101604081905261003391610049565b6001600160a01b0390911660805260a052610083565b6000806040838503121561005c57600080fd5b82516001600160a01b038116811461007357600080fd5b6020939093015192949293505050565b60805160a0516103396100b2600039600050506000818160a101528181610199015261024501526103396000f3fe608060405234801561001057600080fd5b50600436106100365760003560e01c806373f425611461003b578063a0712d6814610056575b600080fd5b61004460005481565b60405190815260200160405180910390f35b6100696100643660046102bb565b61006b565b005b6040517efdd58e0000000000000000000000000000000000000000000000000000000081523360048201526001602482015281907f000000000000000000000000000000000000000000000000000000000000000073ffffffffffffffffffffffffffffffffffffffff169062fdd58e90604401602060405180830381865afa1580156100fc573d6000803e3d6000fd5b505050506040513d601f19601f8201168201806040525081019061012091906102d4565b101561012b57600080fd5b6102008160005461013c91906102ed565b111561014757600080fd5b8060008082825461015891906102ed565b90915550506040517ff5298aca00000000000000000000000000000000000000000000000000000000815233600482015260016024820152604481018290527f000000000000000000000000000000000000000000000000000000000000000073ffffffffffffffffffffffffffffffffffffffff169063f5298aca90606401600060405180830381600087803b1580156101f257600080fd5b505af1158015610206573d6000803e3d6000fd5b50506040517f156e29f600000000000000000000000000000000000000000000000000000000815233600482015261029a6024820152604481018490527f000000000000000000000000000000000000000000000000000000000000000073ffffffffffffffffffffffffffffffffffffffff16925063156e29f69150606401600060405180830381600087803b1580156102a057600080fd5b505af11580156102b4573d6000803e3d6000fd5b5050505050565b6000602082840312156102cd57600080fd5b5035919050565b6000602082840312156102e657600080fd5b5051919050565b60008219821115610327577f4e487b7100000000000000000000000000000000000000000000000000000000600052601160045260246000fd5b50019056fea164736f6c634300080f000a000000000000000000000000afdeb2cd4a2d2bd72e42e7f638846c680df9574d0000000000000000000000000000000000000000000000000000000000000000",
        "nonce": "0x1f9",
        "accessList": []
      },
      "additionalContracts": []
    },
    {
      "hash": "0x61975a8f0547dde86e2a379050503fa4af3a0542fc3398f74500c93865254176",
      "transactionType": "CALL",
      "contractName": "ZooOfNeuralAutomata",
      "contractAddress": "0xAFDeB2cd4a2d2bd72e42e7F638846C680dF9574d",
      "function": "updateMinter(uint256,address)",
      "arguments": [
        "666",
        "0x3f6206BCA635B7Ab87BDf228E3c3055E19D64Db1"
      ],
      "rpc": "https://goerli.infura.io/v3/99b6a57b525c435e805663241b1866d9",
      "transaction": {
        "type": "0x02",
        "from": "0xdead8d41881c82b9fc393d812239f41f3c943a37",
        "to": "0xafdeb2cd4a2d2bd72e42e7f638846c680df9574d",
        "gas": "0xb389",
        "value": "0x0",
        "data": "0x03409d6b000000000000000000000000000000000000000000000000000000000000029a0000000000000000000000003f6206bca635b7ab87bdf228e3c3055e19d64db1",
        "nonce": "0x1fa",
        "accessList": []
      },
      "additionalContracts": []
    }
  ],
  "receipts": [
    {
      "transactionHash": "0x968546261f6c2b953eee9de1cd5ea94074f4a49769049464c97c7cdb96619d4d",
      "transactionIndex": "0x1",
      "blockHash": "0x75bb45638d3a6e145394f2213645253a360fe98d5176a4fcf7d6f58be0082648",
      "blockNumber": "0x80129a",
      "from": "0xDead8d41881c82b9fc393D812239F41f3C943a37",
      "to": null,
      "cumulativeGasUsed": "0x446ad",
      "gasUsed": "0x39271",
      "contractAddress": "0x3f6206BCA635B7Ab87BDf228E3c3055E19D64Db1",
      "logs": [],
      "status": "0x1",
      "logsBloom": "0x00000000000000000000000000000000000000000000000000000000000000000000000000000000000000000000000000000000000000000000000000000000000000000000000000000000000000000000000000000000000000000000000000000000000000000000000000000000000000000000000000000000000000000000000000000000000000000000000000000000000000000000000000000000000000000000000000000000000000000000000000000000000000000000000000000000000000000000000000000000000000000000000000000000000000000000000000000000000000000000000000000000000000000000000000000000",
      "type": "0x2",
      "effectiveGasPrice": "0xb2d05e0b"
    },
    {
      "transactionHash": "0x61975a8f0547dde86e2a379050503fa4af3a0542fc3398f74500c93865254176",
      "transactionIndex": "0x2",
      "blockHash": "0x75bb45638d3a6e145394f2213645253a360fe98d5176a4fcf7d6f58be0082648",
      "blockNumber": "0x80129a",
      "from": "0xDead8d41881c82b9fc393D812239F41f3C943a37",
      "to": "0xAFDeB2cd4a2d2bd72e42e7F638846C680dF9574d",
      "cumulativeGasUsed": "0x4c170",
      "gasUsed": "0x7ac3",
      "contractAddress": null,
      "logs": [],
      "status": "0x1",
      "logsBloom": "0x00000000000000000000000000000000000000000000000000000000000000000000000000000000000000000000000000000000000000000000000000000000000000000000000000000000000000000000000000000000000000000000000000000000000000000000000000000000000000000000000000000000000000000000000000000000000000000000000000000000000000000000000000000000000000000000000000000000000000000000000000000000000000000000000000000000000000000000000000000000000000000000000000000000000000000000000000000000000000000000000000000000000000000000000000000000",
      "type": "0x2",
      "effectiveGasPrice": "0xb2d05e0b"
    }
  ],
  "libraries": [],
  "pending": [],
  "path": "/home/arch/zona/broadcast/NCA.s.sol/5/run-latest.json",
  "returns": {},
  "timestamp": 1674937312,
  "chain": 5,
  "multi": false,
  "commit": "888c555"
}