{
  "transactions": [
    {
      "hash": "0x1953e7b4566ed8e754c0e8a650a4004611afc634142d3ae52403fa1adc1d280a",
      "transactionType": "CALL",
      "contractName": "ZooOfNeuralAutomata",
      "contractAddress": "0xAFDeB2cd4a2d2bd72e42e7F638846C680dF9574d",
      "function": "updateMinter(uint256,address)",
      "arguments": [
        "1",
        "0xDead8d41881c82b9fc393D812239F41f3C943a37"
      ],
      "rpc": "https://goerli.infura.io/v3/99b6a57b525c435e805663241b1866d9",
      "transaction": {
        "type": "0x02",
        "from": "0xdead8d41881c82b9fc393d812239f41f3c943a37",
        "to": "0xafdeb2cd4a2d2bd72e42e7f638846c680df9574d",
        "gas": "0xa97f",
        "value": "0x0",
        "data": "0x03409d6b0000000000000000000000000000000000000000000000000000000000000001000000000000000000000000dead8d41881c82b9fc393d812239f41f3c943a37",
        "nonce": "0x1f7",
        "accessList": []
      },
      "additionalContracts": []
    },
    {
      "hash": "0x57d7de62d02d5c2f577d26244ea21ada6df58bc8ffc4a860efb05724cbe5ab63",
      "transactionType": "CALL",
      "contractName": "ZooOfNeuralAutomata",
      "contractAddress": "0xAFDeB2cd4a2d2bd72e42e7F638846C680dF9574d",
      "function": "mint(address,uint256,uint256)",
      "arguments": [
        "0xDead8d41881c82b9fc393D812239F41f3C943a37",
        "1",
        "100"
      ],
      "rpc": "https://goerli.infura.io/v3/99b6a57b525c435e805663241b1866d9",
      "transaction": {
        "type": "0x02",
        "from": "0xdead8d41881c82b9fc393d812239f41f3c943a37",
        "to": "0xafdeb2cd4a2d2bd72e42e7f638846c680df9574d",
        "gas": "0x10a9c",
        "value": "0x0",
        "data": "0x156e29f6000000000000000000000000dead8d41881c82b9fc393d812239f41f3c943a3700000000000000000000000000000000000000000000000000000000000000010000000000000000000000000000000000000000000000000000000000000064",
        "nonce": "0x1f8",
        "accessList": []
      },
      "additionalContracts": []
    }
  ],
  "receipts": [
    {
      "transactionHash": "0x1953e7b4566ed8e754c0e8a650a4004611afc634142d3ae52403fa1adc1d280a",
      "transactionIndex": "0x3",
      "blockHash": "0x9e018cb86532898d5dd8ad403d30ed9cd629806325e7bbb3dc02b5b733b29811",
      "blockNumber": "0x8011d7",
      "from": "0xDead8d41881c82b9fc393D812239F41f3C943a37",
      "to": "0xAFDeB2cd4a2d2bd72e42e7F638846C680dF9574d",
      "cumulativeGasUsed": "0x1ea27",
      "gasUsed": "0x7ab7",
      "contractAddress": null,
      "logs": [],
      "status": "0x1",
      "logsBloom": "0x00000000000000000000000000000000000000000000000000000000000000000000000000000000000000000000000000000000000000000000000000000000000000000000000000000000000000000000000000000000000000000000000000000000000000000000000000000000000000000000000000000000000000000000000000000000000000000000000000000000000000000000000000000000000000000000000000000000000000000000000000000000000000000000000000000000000000000000000000000000000000000000000000000000000000000000000000000000000000000000000000000000000000000000000000000000",
      "type": "0x2",
      "effectiveGasPrice": "0xb2d05e2d"
    },
    {
      "transactionHash": "0x57d7de62d02d5c2f577d26244ea21ada6df58bc8ffc4a860efb05724cbe5ab63",
      "transactionIndex": "0x4",
      "blockHash": "0x9e018cb86532898d5dd8ad403d30ed9cd629806325e7bbb3dc02b5b733b29811",
      "blockNumber": "0x8011d7",
      "from": "0xDead8d41881c82b9fc393D812239F41f3C943a37",
      "to": "0xAFDeB2cd4a2d2bd72e42e7F638846C680dF9574d",
      "cumulativeGasUsed": "0x2ab2d",
      "gasUsed": "0xc106",
      "contractAddress": null,
      "logs": [
        {
          "address": "0xAFDeB2cd4a2d2bd72e42e7F638846C680dF9574d",
          "topics": [
            "0xc3d58168c5ae7397731d063d5bbf3d657854427343f4c083240f7aacaa2d0f62",
            "0x000000000000000000000000dead8d41881c82b9fc393d812239f41f3c943a37",
            "0x0000000000000000000000000000000000000000000000000000000000000000",
            "0x000000000000000000000000dead8d41881c82b9fc393d812239f41f3c943a37"
          ],
          "data": "0x00000000000000000000000000000000000000000000000000000000000000010000000000000000000000000000000000000000000000000000000000000064",
          "blockHash": "0x9e018cb86532898d5dd8ad403d30ed9cd629806325e7bbb3dc02b5b733b29811",
          "blockNumber": "0x8011d7",
          "transactionHash": "0x57d7de62d02d5c2f577d26244ea21ada6df58bc8ffc4a860efb05724cbe5ab63",
          "transactionIndex": "0x4",
          "logIndex": "0x2",
          "removed": false
        }
      ],
      "status": "0x1",
      "logsBloom": "0x00000000000000000000000000000000000000000000000000000000000000000000000000000000000000000004000000000000000000000000000000002000000000001000000000000000000000000000000000000000000000000000000000000000020000000000000000000800000000001000040000000000000000000000000000000000000000000000000000000000000000000000000000000000000000000000000002000000000000000000000000000000000000000000000000000000000000000080000000000000000000000008000000000000000020000000000000000000000000000000000000000000000000000000080000000000",
      "type": "0x2",
      "effectiveGasPrice": "0xb2d05e2d"
    }
  ],
  "libraries": [],
  "pending": [],
  "path": "/home/arch/zona/broadcast/NCA.s.sol/5/run-latest.json",
  "returns": {},
  "timestamp": 1674934511,
  "chain": 5,
  "multi": false,
  "commit": "888c555"
}