{
  "transactions": [
    {
      "hash": "0x97866c3411ec8f001664ecb03058a9449789e83a73c8d44616b9e59ad532be6a",
      "transactionType": "CALL",
      "contractName": "ZooOfNeuralAutomata",
      "contractAddress": "0xacbD6089ac5d2dE7f49B53269416DbaeA4da9f27",
      "function": "newToken(uint256,(string,string,string,string,string,string,string,string),address,address,string)",
      "arguments": [
        "3",
        "(0, \"#F1F1F1\", \"#DCDCDC\", \"#ECFF00\", [[-0.423,0.26,-0.761],[-0.994,0.629,0.848],[-0.189,-0.318,-0.922]], return sin(x);, return random(1);, )",
        "0x966685481e52B636ea474aa5C6ffB0cA20A7Caf0",
        "0x0000000000000000000000000000000000000000",
        "{\"name\":\"Sundrops\",\"image\":\"ipfs://QmYH9hSNKx7S3uKEmmh9s9zTP2LV9DDvEJ41iTTRyp7Ppn\",\"animation_url\":"
      ],
      "rpc": "https://eth-mainnet.g.alchemy.com/v2/CerrIRj03uCgjmPm68XVOIzBvSrLbS-z",
      "transaction": {
        "type": "0x02",
        "from": "0x966685481e52b636ea474aa5c6ffb0ca20a7caf0",
        "to": "0xacbd6089ac5d2de7f49b53269416dbaea4da9f27",
        "gas": "0x87000",
        "value": "0x0",
        "data": "0x59c9ec74000000000000000000000000000000000000000000000000000000000000000300000000000000000000000000000000000000000000000000000000000000a0000000000000000000000000966685481e52b636ea474aa5c6ffb0ca20a7caf0000000000000000000000000000000000000000000000000000000000000000000000000000000000000000000000000000000000000000000000000000003c000000000000000000000000000000000000000000000000000000000000001000000000000000000000000000000000000000000000000000000000000000140000000000000000000000000000000000000000000000000000000000000018000000000000000000000000000000000000000000000000000000000000001c00000000000000000000000000000000000000000000000000000000000000200000000000000000000000000000000000000000000000000000000000000028000000000000000000000000000000000000000000000000000000000000002c000000000000000000000000000000000000000000000000000000000000003000000000000000000000000000000000000000000000000000000000000000001300000000000000000000000000000000000000000000000000000000000000000000000000000000000000000000000000000000000000000000000000000092223463146314631220000000000000000000000000000000000000000000000000000000000000000000000000000000000000000000000000000000000000922234443444344432200000000000000000000000000000000000000000000000000000000000000000000000000000000000000000000000000000000000009222345434646303022000000000000000000000000000000000000000000000000000000000000000000000000000000000000000000000000000000000000425b5b2d302e3432332c302e32362c2d302e3736315d2c5b2d302e3939342c302e3632392c302e3834385d2c5b2d302e3138392c2d302e3331382c2d302e3932325d5d000000000000000000000000000000000000000000000000000000000000000000000000000000000000000000000000000000000000000000000000000e72657475726e2073696e2878293b000000000000000000000000000000000000000000000000000000000000000000000000000000000000000000000000001172657475726e2072616e646f6d2831293b000000000000000000000000000000000000000000000000000000000000000000000000000000000000000000000000000000000000000000000000000000000000000000000000000000000000637b226e616d65223a2253756e64726f7073222c22696d616765223a22697066733a2f2f516d59483968534e4b78375333754b456d6d683973397a5450324c5639444476454a34316954545279703750706e222c22616e696d6174696f6e5f75726c223a0000000000000000000000000000000000000000000000000000000000",
        "nonce": "0xf",
        "accessList": []
      },
      "additionalContracts": []
    },
    {
      "hash": "0x12e696b793191ecb6b0a6d438cf6786cc7dba927f944537ff64d9aa6e333e854",
      "transactionType": "CALL",
      "contractName": "ZooOfNeuralAutomata",
      "contractAddress": "0xacbD6089ac5d2dE7f49B53269416DbaeA4da9f27",
      "function": "mint(address,uint256,uint256)",
      "arguments": [
        "0x0aa0Bc25769C52e623D09A9764e079A221BeA2a1",
        "3",
        "10"
      ],
      "rpc": "https://eth-mainnet.g.alchemy.com/v2/CerrIRj03uCgjmPm68XVOIzBvSrLbS-z",
      "transaction": {
        "type": "0x02",
        "from": "0x966685481e52b636ea474aa5c6ffb0ca20a7caf0",
        "to": "0xacbd6089ac5d2de7f49b53269416dbaea4da9f27",
        "gas": "0x12893",
        "value": "0x0",
        "data": "0x156e29f60000000000000000000000000aa0bc25769c52e623d09a9764e079a221bea2a10000000000000000000000000000000000000000000000000000000000000003000000000000000000000000000000000000000000000000000000000000000a",
        "nonce": "0x10",
        "accessList": []
      },
      "additionalContracts": []
    },
    {
      "hash": "0x0a03accaf02b9bd905d038a8e3737435daa30b6f8c0f6b949fd1fb50e19b7020",
      "transactionType": "CALL",
      "contractName": "ZooOfNeuralAutomata",
      "contractAddress": "0xacbD6089ac5d2dE7f49B53269416DbaeA4da9f27",
      "function": "updateMinter(uint256,address)",
      "arguments": [
        "3",
        "0xdEad000000000000000000000000000000000000"
      ],
      "rpc": "https://eth-mainnet.g.alchemy.com/v2/CerrIRj03uCgjmPm68XVOIzBvSrLbS-z",
      "transaction": {
        "type": "0x02",
        "from": "0x966685481e52b636ea474aa5c6ffb0ca20a7caf0",
        "to": "0xacbd6089ac5d2de7f49b53269416dbaea4da9f27",
        "gas": "0xa854",
        "value": "0x0",
        "data": "0x03409d6b0000000000000000000000000000000000000000000000000000000000000003000000000000000000000000dead000000000000000000000000000000000000",
        "nonce": "0x11",
        "accessList": []
      },
      "additionalContracts": []
    },
    {
      "hash": "0x4f93280f57597dae7dac59be9848bc90940fd2bfb5783c8a30063e185d27d58e",
      "transactionType": "CALL",
      "contractName": "ZooOfNeuralAutomata",
      "contractAddress": "0xacbD6089ac5d2dE7f49B53269416DbaeA4da9f27",
      "function": "transferOwnership(address)",
      "arguments": [
        "0x0aa0Bc25769C52e623D09A9764e079A221BeA2a1"
      ],
      "rpc": "https://eth-mainnet.g.alchemy.com/v2/CerrIRj03uCgjmPm68XVOIzBvSrLbS-z",
      "transaction": {
        "type": "0x02",
        "from": "0x966685481e52b636ea474aa5c6ffb0ca20a7caf0",
        "to": "0xacbd6089ac5d2de7f49b53269416dbaea4da9f27",
        "gas": "0xa2cf",
        "value": "0x0",
        "data": "0xf2fde38b0000000000000000000000000aa0bc25769c52e623d09a9764e079a221bea2a1",
        "nonce": "0x12",
        "accessList": []
      },
      "additionalContracts": []
    }
  ],
  "receipts": [],
  "libraries": [],
  "pending": [
    "0x97866c3411ec8f001664ecb03058a9449789e83a73c8d44616b9e59ad532be6a",
    "0x12e696b793191ecb6b0a6d438cf6786cc7dba927f944537ff64d9aa6e333e854",
    "0x0a03accaf02b9bd905d038a8e3737435daa30b6f8c0f6b949fd1fb50e19b7020",
    "0x4f93280f57597dae7dac59be9848bc90940fd2bfb5783c8a30063e185d27d58e"
  ],
  "path": "/home/arch/zona/broadcast/NCA.s.sol/1/run-latest.json",
  "returns": {},
  "timestamp": 1674609176,
  "chain": 1,
  "multi": false,
  "commit": "888c555"
}