{
  "transactions": [
    {
      "hash": "0x97866c3411ec8f001664ecb03058a9449789e83a73c8d44616b9e59ad532be6a",
      "transactionType": "CALL",
      "contractName": "ZooOfNeuralAutomata",
      "contractAddress": "0xacbD6089ac5d2dE7f49B53269416DbaeA4da9f27",
      "function": "newToken(uint256,(string,string,string,string,string,string,string,string),address,address,string)",
      "arguments": [
        "3",
        "(0, \"#F1F1F1\", \"#DCDCDC\", \"#ECFF00\", [[-0.423,0.26,-0.761],[-0.994,0.629,0.848],[-0.189,-0.318,-0.922]], return sin(x);, return random(1);, )",
        "0x966685481e52B636ea474aa5C6ffB0cA20A7Caf0",
        "0x0000000000000000000000000000000000000000",
        "{\"name\":\"Sundrops\",\"image\":\"ipfs://QmYH9hSNKx7S3uKEmmh9s9zTP2LV9DDvEJ41iTTRyp7Ppn\",\"animation_url\":"
      ],
      "rpc": "https://eth-mainnet.g.alchemy.com/v2/CerrIRj03uCgjmPm68XVOIzBvSrLbS-z",
      "transaction": {
        "type": "0x02",
        "from": "0x966685481e52b636ea474aa5c6ffb0ca20a7caf0",
        "to": "0xacbd6089ac5d2de7f49b53269416dbaea4da9f27",
        "gas": "0x87000",
        "value": "0x0",
        "data": "0x59c9ec74000000000000000000000000000000000000000000000000000000000000000300000000000000000000000000000000000000000000000000000000000000a0000000000000000000000000966685481e52b636ea474aa5c6ffb0ca20a7caf0000000000000000000000000000000000000000000000000000000000000000000000000000000000000000000000000000000000000000000000000000003c000000000000000000000000000000000000000000000000000000000000001000000000000000000000000000000000000000000000000000000000000000140000000000000000000000000000000000000000000000000000000000000018000000000000000000000000000000000000000000000000000000000000001c00000000000000000000000000000000000000000000000000000000000000200000000000000000000000000000000000000000000000000000000000000028000000000000000000000000000000000000000000000000000000000000002c000000000000000000000000000000000000000000000000000000000000003000000000000000000000000000000000000000000000000000000000000000001300000000000000000000000000000000000000000000000000000000000000000000000000000000000000000000000000000000000000000000000000000092223463146314631220000000000000000000000000000000000000000000000000000000000000000000000000000000000000000000000000000000000000922234443444344432200000000000000000000000000000000000000000000000000000000000000000000000000000000000000000000000000000000000009222345434646303022000000000000000000000000000000000000000000000000000000000000000000000000000000000000000000000000000000000000425b5b2d302e3432332c302e32362c2d302e3736315d2c5b2d302e3939342c302e3632392c302e3834385d2c5b2d302e3138392c2d302e3331382c2d302e3932325d5d000000000000000000000000000000000000000000000000000000000000000000000000000000000000000000000000000000000000000000000000000e72657475726e2073696e2878293b000000000000000000000000000000000000000000000000000000000000000000000000000000000000000000000000001172657475726e2072616e646f6d2831293b000000000000000000000000000000000000000000000000000000000000000000000000000000000000000000000000000000000000000000000000000000000000000000000000000000000000637b226e616d65223a2253756e64726f7073222c22696d616765223a22697066733a2f2f516d59483968534e4b78375333754b456d6d683973397a5450324c5639444476454a34316954545279703750706e222c22616e696d6174696f6e5f75726c223a0000000000000000000000000000000000000000000000000000000000",
        "nonce": "0xf",
        "accessList": []
      },
      "additionalContracts": []
    },
    {
      "hash": "0x12e696b793191ecb6b0a6d438cf6786cc7dba927f944537ff64d9aa6e333e854",
      "transactionType": "CALL",
      "contractName": "ZooOfNeuralAutomata",
      "contractAddress": "0xacbD6089ac5d2dE7f49B53269416DbaeA4da9f27",
      "function": "mint(address,uint256,uint256)",
      "arguments": [
        "0x0aa0Bc25769C52e623D09A9764e079A221BeA2a1",
        "3",
        "10"
      ],
      "rpc": "https://eth-mainnet.g.alchemy.com/v2/CerrIRj03uCgjmPm68XVOIzBvSrLbS-z",
      "transaction": {
        "type": "0x02",
        "from": "0x966685481e52b636ea474aa5c6ffb0ca20a7caf0",
        "to": "0xacbd6089ac5d2de7f49b53269416dbaea4da9f27",
        "gas": "0x12893",
        "value": "0x0",
        "data": "0x156e29f60000000000000000000000000aa0bc25769c52e623d09a9764e079a221bea2a10000000000000000000000000000000000000000000000000000000000000003000000000000000000000000000000000000000000000000000000000000000a",
        "nonce": "0x10",
        "accessList": []
      },
      "additionalContracts": []
    },
    {
      "hash": "0x0a03accaf02b9bd905d038a8e3737435daa30b6f8c0f6b949fd1fb50e19b7020",
      "transactionType": "CALL",
      "contractName": "ZooOfNeuralAutomata",
      "contractAddress": "0xacbD6089ac5d2dE7f49B53269416DbaeA4da9f27",
      "function": "updateMinter(uint256,address)",
      "arguments": [
        "3",
        "0xdEad000000000000000000000000000000000000"
      ],
      "rpc": "https://eth-mainnet.g.alchemy.com/v2/CerrIRj03uCgjmPm68XVOIzBvSrLbS-z",
      "transaction": {
        "type": "0x02",
        "from": "0x966685481e52b636ea474aa5c6ffb0ca20a7caf0",
        "to": "0xacbd6089ac5d2de7f49b53269416dbaea4da9f27",
        "gas": "0xa854",
        "value": "0x0",
        "data": "0x03409d6b0000000000000000000000000000000000000000000000000000000000000003000000000000000000000000dead000000000000000000000000000000000000",
        "nonce": "0x11",
        "accessList": []
      },
      "additionalContracts": []
    },
    {
      "hash": "0x4f93280f57597dae7dac59be9848bc90940fd2bfb5783c8a30063e185d27d58e",
      "transactionType": "CALL",
      "contractName": "ZooOfNeuralAutomata",
      "contractAddress": "0xacbD6089ac5d2dE7f49B53269416DbaeA4da9f27",
      "function": "transferOwnership(address)",
      "arguments": [
        "0x0aa0Bc25769C52e623D09A9764e079A221BeA2a1"
      ],
      "rpc": "https://eth-mainnet.g.alchemy.com/v2/CerrIRj03uCgjmPm68XVOIzBvSrLbS-z",
      "transaction": {
        "type": "0x02",
        "from": "0x966685481e52b636ea474aa5c6ffb0ca20a7caf0",
        "to": "0xacbd6089ac5d2de7f49b53269416dbaea4da9f27",
        "gas": "0xa2cf",
        "value": "0x0",
        "data": "0xf2fde38b0000000000000000000000000aa0bc25769c52e623d09a9764e079a221bea2a1",
        "nonce": "0x12",
        "accessList": []
      },
      "additionalContracts": []
    }
  ],
  "receipts": [
    {
      "transactionHash": "0x97866c3411ec8f001664ecb03058a9449789e83a73c8d44616b9e59ad532be6a",
      "transactionIndex": "0x4",
      "blockHash": "0x37307dc796ab71c27daa15fe8a20439684edc3208d87bf5b2999239c601255c0",
      "blockNumber": "0xfb78dc",
      "from": "0x966685481e52B636ea474aa5C6ffB0cA20A7Caf0",
      "to": "0xacbD6089ac5d2dE7f49B53269416DbaeA4da9f27",
      "cumulativeGasUsed": "0xd9774",
      "gasUsed": "0x61bce",
      "contractAddress": null,
      "logs": [],
      "status": "0x1",
      "logsBloom": "0x00000000000000000000000000000000000000000000000000000000000000000000000000000000000000000000000000000000000000000000000000000000000000000000000000000000000000000000000000000000000000000000000000000000000000000000000000000000000000000000000000000000000000000000000000000000000000000000000000000000000000000000000000000000000000000000000000000000000000000000000000000000000000000000000000000000000000000000000000000000000000000000000000000000000000000000000000000000000000000000000000000000000000000000000000000000",
      "type": "0x2",
      "effectiveGasPrice": "0x445f5412b"
    },
    {
      "transactionHash": "0x12e696b793191ecb6b0a6d438cf6786cc7dba927f944537ff64d9aa6e333e854",
      "transactionIndex": "0x29",
      "blockHash": "0x37307dc796ab71c27daa15fe8a20439684edc3208d87bf5b2999239c601255c0",
      "blockNumber": "0xfb78dc",
      "from": "0x966685481e52B636ea474aa5C6ffB0cA20A7Caf0",
      "to": "0xacbD6089ac5d2dE7f49B53269416DbaeA4da9f27",
      "cumulativeGasUsed": "0x486b72",
      "gasUsed": "0xcaca",
      "contractAddress": null,
      "logs": [
        {
          "address": "0xacbD6089ac5d2dE7f49B53269416DbaeA4da9f27",
          "topics": [
            "0xc3d58168c5ae7397731d063d5bbf3d657854427343f4c083240f7aacaa2d0f62",
            "0x000000000000000000000000966685481e52b636ea474aa5c6ffb0ca20a7caf0",
            "0x0000000000000000000000000000000000000000000000000000000000000000",
            "0x0000000000000000000000000aa0bc25769c52e623d09a9764e079a221bea2a1"
          ],
          "data": "0x0000000000000000000000000000000000000000000000000000000000000003000000000000000000000000000000000000000000000000000000000000000a",
          "blockHash": "0x37307dc796ab71c27daa15fe8a20439684edc3208d87bf5b2999239c601255c0",
          "blockNumber": "0xfb78dc",
          "transactionHash": "0x12e696b793191ecb6b0a6d438cf6786cc7dba927f944537ff64d9aa6e333e854",
          "transactionIndex": "0x29",
          "logIndex": "0x6f",
          "removed": false
        }
      ],
      "status": "0x1",
      "logsBloom": "0x00000000000000000000000000000000000000000000000000008000000000000000000000000000000000000000000000400000000000000000000000002000000040000000000000000000000000000000000000000000000000000000000000000000020000000000000000000800010000000000000000000000000000000000000000000000000000000000000000000000000000000000000000000000000000000000000000000000000000100000000000000000000000000000000000000000000000000000000000000000000100000008800000000000000020000000000000100000000000000000000000000000000000000000880000000000",
      "type": "0x2",
      "effectiveGasPrice": "0x445f5412b"
    },
    {
      "transactionHash": "0x0a03accaf02b9bd905d038a8e3737435daa30b6f8c0f6b949fd1fb50e19b7020",
      "transactionIndex": "0x2a",
      "blockHash": "0x37307dc796ab71c27daa15fe8a20439684edc3208d87bf5b2999239c601255c0",
      "blockNumber": "0xfb78dc",
      "from": "0x966685481e52B636ea474aa5C6ffB0cA20A7Caf0",
      "to": "0xacbD6089ac5d2dE7f49B53269416DbaeA4da9f27",
      "cumulativeGasUsed": "0x48e551",
      "gasUsed": "0x79df",
      "contractAddress": null,
      "logs": [],
      "status": "0x1",
      "logsBloom": "0x00000000000000000000000000000000000000000000000000000000000000000000000000000000000000000000000000000000000000000000000000000000000000000000000000000000000000000000000000000000000000000000000000000000000000000000000000000000000000000000000000000000000000000000000000000000000000000000000000000000000000000000000000000000000000000000000000000000000000000000000000000000000000000000000000000000000000000000000000000000000000000000000000000000000000000000000000000000000000000000000000000000000000000000000000000000",
      "type": "0x2",
      "effectiveGasPrice": "0x445f5412b"
    },
    {
      "transactionHash": "0x4f93280f57597dae7dac59be9848bc90940fd2bfb5783c8a30063e185d27d58e",
      "transactionIndex": "0x2b",
      "blockHash": "0x37307dc796ab71c27daa15fe8a20439684edc3208d87bf5b2999239c601255c0",
      "blockNumber": "0xfb78dc",
      "from": "0x966685481e52B636ea474aa5C6ffB0cA20A7Caf0",
      "to": "0xacbD6089ac5d2dE7f49B53269416DbaeA4da9f27",
      "cumulativeGasUsed": "0x4954a4",
      "gasUsed": "0x6f53",
      "contractAddress": null,
      "logs": [
        {
          "address": "0xacbD6089ac5d2dE7f49B53269416DbaeA4da9f27",
          "topics": [
            "0x8be0079c531659141344cd1fd0a4f28419497f9722a3daafe3b4186f6b6457e0",
            "0x000000000000000000000000966685481e52b636ea474aa5c6ffb0ca20a7caf0",
            "0x0000000000000000000000000aa0bc25769c52e623d09a9764e079a221bea2a1"
          ],
          "data": "0x",
          "blockHash": "0x37307dc796ab71c27daa15fe8a20439684edc3208d87bf5b2999239c601255c0",
          "blockNumber": "0xfb78dc",
          "transactionHash": "0x4f93280f57597dae7dac59be9848bc90940fd2bfb5783c8a30063e185d27d58e",
          "transactionIndex": "0x2b",
          "logIndex": "0x70",
          "removed": false
        }
      ],
      "status": "0x1",
      "logsBloom": "0x00000000000000000000000000000000000000000000000000808000000000000000000000000000000000000000000000400000000000000000000000000000000040000000000000000000000000000001000000000000000000000000000000000000000000000000000000000000010000000000000000000000000000400000000000000000000000000000000000000000000000000000000000000000000000000000000000000000000000100000000000000000000000000000000000000000000000000000000000000000000100000000800000000000000000000000000000100000000000000000000000000000000000000000800000000000",
      "type": "0x2",
      "effectiveGasPrice": "0x445f5412b"
    }
  ],
  "libraries": [],
  "pending": [],
  "path": "/home/arch/zona/broadcast/NCA.s.sol/1/run-latest.json",
  "returns": {},
  "timestamp": 1674609183,
  "chain": 1,
  "multi": false,
  "commit": "888c555"
}