{
  "transactions": [
    {
      "hash": "0xbcfe52f7cfece8060b389aece02bb773bf8641aebd41c2ba9f77f9eefa05c6a1",
      "transactionType": "CREATE",
      "contractName": "Spaces",
      "contractAddress": "0x52073637b42D8947f8EDBD07aF7C8Fb628636a61",
      "function": null,
      "arguments": [
        "0x0aa0Bc25769C52e623D09A9764e079A221BeA2a1",
        "0xacbD6089ac5d2dE7f49B53269416DbaeA4da9f27",
        "1675447200"
      ],
      "rpc": "https://eth-mainnet.g.alchemy.com/v2/CerrIRj03uCgjmPm68XVOIzBvSrLbS-z",
      "transaction": {
        "type": "0x02",
        "from": "0x966685481e52b636ea474aa5c6ffb0ca20a7caf0",
        "gas": "0x66440",
        "value": "0x0",
        "data": "0x60e060405234801561001057600080fd5b506040516105c43803806105c483398101604081905261002f916100be565b600080546001600160a01b0319166001600160a01b03851690811782556040518592907f8be0079c531659141344cd1fd0a4f28419497f9722a3daafe3b4186f6b6457e0908290a3506001600160a01b03821660805260a081905261009681611c206100fa565b60c05250610120915050565b80516001600160a01b03811681146100b957600080fd5b919050565b6000806000606084860312156100d357600080fd5b6100dc846100a2565b92506100ea602085016100a2565b9150604084015190509250925092565b6000821982111561011b57634e487b7160e01b600052601160045260246000fd5b500190565b60805160a05160c05161046261016260003960008181609101526101f101526000818161011701526101a201526000818160cb01526102c501526104626000f3fe608060405234801561001057600080fd5b506004361061007d5760003560e01c806378e979251161005b57806378e97925146101125780638da5cb5b14610139578063c884ef8314610159578063f2fde38b1461018c57600080fd5b80631249c58b146100825780633197cbb61461008c57806344b170fe146100c6575b600080fd5b61008a61019f565b005b6100b37f000000000000000000000000000000000000000000000000000000000000000081565b6040519081526020015b60405180910390f35b6100ed7f000000000000000000000000000000000000000000000000000000000000000081565b60405173ffffffffffffffffffffffffffffffffffffffff90911681526020016100bd565b6100b37f000000000000000000000000000000000000000000000000000000000000000081565b6000546100ed9073ffffffffffffffffffffffffffffffffffffffff1681565b61017c610167366004610418565b60016020526000908152604090205460ff1681565b60405190151581526020016100bd565b61008a61019a366004610418565b610323565b427f00000000000000000000000000000000000000000000000000000000000000001115806101e5575060005473ffffffffffffffffffffffffffffffffffffffff1633145b6101ee57600080fd5b427f0000000000000000000000000000000000000000000000000000000000000000101561021b57600080fd5b3360009081526001602052604090205460ff161561023857600080fd5b3360008181526001602081905260409182902080547fffffffffffffffffffffffffffffffffffffffffffffffffffffffffffffff00168217905590517f156e29f60000000000000000000000000000000000000000000000000000000081526004808201939093526024810192909252604482015273ffffffffffffffffffffffffffffffffffffffff7f0000000000000000000000000000000000000000000000000000000000000000169063156e29f690606401600060405180830381600087803b15801561030957600080fd5b505af115801561031d573d6000803e3d6000fd5b50505050565b60005473ffffffffffffffffffffffffffffffffffffffff1633146103a8576040517f08c379a000000000000000000000000000000000000000000000000000000000815260206004820152600c60248201527f554e415554484f52495a45440000000000000000000000000000000000000000604482015260640160405180910390fd5b600080547fffffffffffffffffffffffff00000000000000000000000000000000000000001673ffffffffffffffffffffffffffffffffffffffff83169081178255604051909133917f8be0079c531659141344cd1fd0a4f28419497f9722a3daafe3b4186f6b6457e09190a350565b60006020828403121561042a57600080fd5b813573ffffffffffffffffffffffffffffffffffffffff8116811461044e57600080fd5b939250505056fea164736f6c634300080f000a0000000000000000000000000aa0bc25769c52e623d09a9764e079a221bea2a1000000000000000000000000acbd6089ac5d2de7f49b53269416dbaea4da9f270000000000000000000000000000000000000000000000000000000063dd4ba0",
        "nonce": "0x19",
        "accessList": []
      },
      "additionalContracts": []
    },
    {
      "hash": "0x5342a24c4699384d8729b9b286284f19d8c4919c15de6ffe6cfd57dadafd6800",
      "transactionType": "CALL",
      "contractName": "ZooOfNeuralAutomata",
      "contractAddress": "0xacbD6089ac5d2dE7f49B53269416DbaeA4da9f27",
      "function": "newToken(uint256,(string,string,string,string,string,string,string,string),address,address,string)",
      "arguments": [
        "4",
        "(0, \"#2F003F\", \"#00214E\", \"#B6FF00\", [[-0.348,-0.805,-0.792],[-0.663,0.957,0.267],[-0.139,-0.728,0.527]], return sin(x);, return random(1);, )",
        "0x52073637b42D8947f8EDBD07aF7C8Fb628636a61",
        "0x0000000000000000000000000000000000000000",
        "{\"name\":\"Spaces\",\"image\":\"ipfs://QmWNJb5Ce5F9XrjuxKspH9VzD46RFaWj3MTVrSEjH1dPd8\",\"animation_url\":"
      ],
      "rpc": "https://eth-mainnet.g.alchemy.com/v2/CerrIRj03uCgjmPm68XVOIzBvSrLbS-z",
      "transaction": {
        "type": "0x02",
        "from": "0x966685481e52b636ea474aa5c6ffb0ca20a7caf0",
        "to": "0xacbd6089ac5d2de7f49b53269416dbaea4da9f27",
        "gas": "0x8eefe",
        "value": "0x0",
        "data": "0x59c9ec74000000000000000000000000000000000000000000000000000000000000000400000000000000000000000000000000000000000000000000000000000000a000000000000000000000000052073637b42d8947f8edbd07af7c8fb628636a61000000000000000000000000000000000000000000000000000000000000000000000000000000000000000000000000000000000000000000000000000003c000000000000000000000000000000000000000000000000000000000000001000000000000000000000000000000000000000000000000000000000000000140000000000000000000000000000000000000000000000000000000000000018000000000000000000000000000000000000000000000000000000000000001c00000000000000000000000000000000000000000000000000000000000000200000000000000000000000000000000000000000000000000000000000000028000000000000000000000000000000000000000000000000000000000000002c000000000000000000000000000000000000000000000000000000000000003000000000000000000000000000000000000000000000000000000000000000001300000000000000000000000000000000000000000000000000000000000000000000000000000000000000000000000000000000000000000000000000000092223324630303346220000000000000000000000000000000000000000000000000000000000000000000000000000000000000000000000000000000000000922233030323134452200000000000000000000000000000000000000000000000000000000000000000000000000000000000000000000000000000000000009222342364646303022000000000000000000000000000000000000000000000000000000000000000000000000000000000000000000000000000000000000435b5b2d302e3334382c2d302e3830352c2d302e3739325d2c5b2d302e3636332c302e3935372c302e3236375d2c5b2d302e3133392c2d302e3732382c302e3532375d5d0000000000000000000000000000000000000000000000000000000000000000000000000000000000000000000000000000000000000000000000000e72657475726e2073696e2878293b000000000000000000000000000000000000000000000000000000000000000000000000000000000000000000000000001172657475726e2072616e646f6d2831293b000000000000000000000000000000000000000000000000000000000000000000000000000000000000000000000000000000000000000000000000000000000000000000000000000000000000617b226e616d65223a22537061636573222c22696d616765223a22697066733a2f2f516d574e4a6235436535463958726a75784b73704839567a443436524661576a334d54567253456a483164506438222c22616e696d6174696f6e5f75726c223a00000000000000000000000000000000000000000000000000000000000000",
        "nonce": "0x1a",
        "accessList": []
      },
      "additionalContracts": []
    },
    {
      "hash": "0xde7094b937d14e2e98e748480b5d8b116e2af1f2a4db7b04959167c69a8b0946",
      "transactionType": "CALL",
      "contractName": "ZooOfNeuralAutomata",
      "contractAddress": "0xacbD6089ac5d2dE7f49B53269416DbaeA4da9f27",
      "function": "transferOwnership(address)",
      "arguments": [
        "0x0aa0Bc25769C52e623D09A9764e079A221BeA2a1"
      ],
      "rpc": "https://eth-mainnet.g.alchemy.com/v2/CerrIRj03uCgjmPm68XVOIzBvSrLbS-z",
      "transaction": {
        "type": "0x02",
        "from": "0x966685481e52b636ea474aa5c6ffb0ca20a7caf0",
        "to": "0xacbd6089ac5d2de7f49b53269416dbaea4da9f27",
        "gas": "0xa2cf",
        "value": "0x0",
        "data": "0xf2fde38b0000000000000000000000000aa0bc25769c52e623d09a9764e079a221bea2a1",
        "nonce": "0x1b",
        "accessList": []
      },
      "additionalContracts": []
    }
  ],
  "receipts": [],
  "libraries": [],
  "pending": [
    "0xbcfe52f7cfece8060b389aece02bb773bf8641aebd41c2ba9f77f9eefa05c6a1",
    "0x5342a24c4699384d8729b9b286284f19d8c4919c15de6ffe6cfd57dadafd6800",
    "0xde7094b937d14e2e98e748480b5d8b116e2af1f2a4db7b04959167c69a8b0946"
  ],
  "path": "/home/arch/zona/broadcast/NCA.s.sol/1/run-latest.json",
  "returns": {},
  "timestamp": 1675393263,
  "chain": 1,
  "multi": false,
  "commit": "888c555"
}