{
  "transactions": [
    {
      "hash": "0x9f037f8dcbbd994eb81146d33a11d8bb48b7dfbbed5e8046113e632ad3ca9171",
      "transactionType": "CREATE",
      "contractName": "Enfernous",
      "contractAddress": "0x6B61bd7578DdB7357528f4AE7038EDAdb0dB7428",
      "function": null,
      "arguments": [
        "0x0aa0Bc25769C52e623D09A9764e079A221BeA2a1",
        "0xacbD6089ac5d2dE7f49B53269416DbaeA4da9f27",
        "1675105200"
      ],
      "rpc": "https://eth-mainnet.g.alchemy.com/v2/CerrIRj03uCgjmPm68XVOIzBvSrLbS-z",
      "transaction": {
        "type": "0x02",
        "from": "0x966685481e52b636ea474aa5c6ffb0ca20a7caf0",
        "gas": "0x571b3",
        "value": "0x0",
        "data": "0x60c0604052600060015534801561001557600080fd5b5060405161046f38038061046f83398101604081905261003491610079565b600080546001600160a01b0319166001600160a01b03948516179055911660805260a0526100b5565b80516001600160a01b038116811461007457600080fd5b919050565b60008060006060848603121561008e57600080fd5b6100978461005d565b92506100a56020850161005d565b9150604084015190509250925092565b60805160a0516103896100e66000396000606e01526000818160f0015281816101e9015261029501526103896000f3fe608060405234801561001057600080fd5b50600436106100365760003560e01c806373f425611461003b578063a0712d6814610056575b600080fd5b61004460015481565b60405190815260200160405180910390f35b61006961006436600461030b565b61006b565b005b427f00000000000000000000000000000000000000000000000000000000000000001115806100b1575060005473ffffffffffffffffffffffffffffffffffffffff1633145b6100ba57600080fd5b6040517efdd58e0000000000000000000000000000000000000000000000000000000081523360048201526001602482015281907f000000000000000000000000000000000000000000000000000000000000000073ffffffffffffffffffffffffffffffffffffffff169062fdd58e90604401602060405180830381865afa15801561014b573d6000803e3d6000fd5b505050506040513d601f19601f8201168201806040525081019061016f9190610324565b101561017a57600080fd5b6102008160015461018b919061033d565b111561019657600080fd5b80600160008282546101a8919061033d565b90915550506040517ff5298aca00000000000000000000000000000000000000000000000000000000815233600482015260016024820152604481018290527f000000000000000000000000000000000000000000000000000000000000000073ffffffffffffffffffffffffffffffffffffffff169063f5298aca90606401600060405180830381600087803b15801561024257600080fd5b505af1158015610256573d6000803e3d6000fd5b50506040517f156e29f600000000000000000000000000000000000000000000000000000000815233600482015261029a6024820152604481018490527f000000000000000000000000000000000000000000000000000000000000000073ffffffffffffffffffffffffffffffffffffffff16925063156e29f69150606401600060405180830381600087803b1580156102f057600080fd5b505af1158015610304573d6000803e3d6000fd5b5050505050565b60006020828403121561031d57600080fd5b5035919050565b60006020828403121561033657600080fd5b5051919050565b60008219821115610377577f4e487b7100000000000000000000000000000000000000000000000000000000600052601160045260246000fd5b50019056fea164736f6c634300080f000a0000000000000000000000000aa0bc25769c52e623d09a9764e079a221bea2a1000000000000000000000000acbd6089ac5d2de7f49b53269416dbaea4da9f270000000000000000000000000000000000000000000000000000000063d813b0",
        "nonce": "0x14",
        "accessList": []
      },
      "additionalContracts": []
    },
    {
      "hash": "0xd160399294643b1adf5ad12f92d8ad932a939732ab357699da38167e71ec007f",
      "transactionType": "CALL",
      "contractName": "ZooOfNeuralAutomata",
      "contractAddress": "0xacbD6089ac5d2dE7f49B53269416DbaeA4da9f27",
      "function": "newToken(uint256,(string,string,string,string,string,string,string,string),address,address,string)",
      "arguments": [
        "666",
        "(0, \"#000\", \"#BA0000\", \"#FF9B00\", [[-0.521,0.882,-0.378],[-0.85,0.164,-0.476],[-0.743,0.721,0.902]], return -1/pow(2.5, (pow(x, 4)))+1;, return random(1);, )",
        "0x6B61bd7578DdB7357528f4AE7038EDAdb0dB7428",
        "0x0000000000000000000000000000000000000000",
        "{\"name\":\"Enfernous\",\"image\":\"ipfs://Qmf6BPQqKyShvcPibTxchQLU8H6T1MoRyTERBGBeMnXFqm\",\"animation_url\":"
      ],
      "rpc": "https://eth-mainnet.g.alchemy.com/v2/CerrIRj03uCgjmPm68XVOIzBvSrLbS-z",
      "transaction": {
        "type": "0x02",
        "from": "0x966685481e52b636ea474aa5c6ffb0ca20a7caf0",
        "to": "0xacbd6089ac5d2de7f49b53269416dbaea4da9f27",
        "gas": "0x9eea9",
        "value": "0x0",
        "data": "0x59c9ec74000000000000000000000000000000000000000000000000000000000000029a00000000000000000000000000000000000000000000000000000000000000a00000000000000000000000006b61bd7578ddb7357528f4ae7038edadb0db7428000000000000000000000000000000000000000000000000000000000000000000000000000000000000000000000000000000000000000000000000000003e000000000000000000000000000000000000000000000000000000000000001000000000000000000000000000000000000000000000000000000000000000140000000000000000000000000000000000000000000000000000000000000018000000000000000000000000000000000000000000000000000000000000001c00000000000000000000000000000000000000000000000000000000000000200000000000000000000000000000000000000000000000000000000000000028000000000000000000000000000000000000000000000000000000000000002e000000000000000000000000000000000000000000000000000000000000003200000000000000000000000000000000000000000000000000000000000000001300000000000000000000000000000000000000000000000000000000000000000000000000000000000000000000000000000000000000000000000000000062223303030220000000000000000000000000000000000000000000000000000000000000000000000000000000000000000000000000000000000000000000922234241303030302200000000000000000000000000000000000000000000000000000000000000000000000000000000000000000000000000000000000009222346463942303022000000000000000000000000000000000000000000000000000000000000000000000000000000000000000000000000000000000000415b5b2d302e3532312c302e3838322c2d302e3337385d2c5b2d302e38352c302e3136342c2d302e3437365d2c5b2d302e3734332c302e3732312c302e3930325d5d00000000000000000000000000000000000000000000000000000000000000000000000000000000000000000000000000000000000000000000000000002272657475726e202d312f706f7728322e352c2028706f7728782c20342929292b313b000000000000000000000000000000000000000000000000000000000000000000000000000000000000000000000000000000000000000000000000001172657475726e2072616e646f6d2831293b000000000000000000000000000000000000000000000000000000000000000000000000000000000000000000000000000000000000000000000000000000000000000000000000000000000000647b226e616d65223a22456e6665726e6f7573222c22696d616765223a22697066733a2f2f516d6636425051714b795368766350696254786368514c5538483654314d6f5279544552424742654d6e5846716d222c22616e696d6174696f6e5f75726c223a00000000000000000000000000000000000000000000000000000000",
        "nonce": "0x15",
        "accessList": []
      },
      "additionalContracts": []
    },
    {
      "hash": "0x8f82814cc55811d05c5b2d4f1e217acc5972220e75c414b2e1021881dde08cf6",
      "transactionType": "CALL",
      "contractName": "ZooOfNeuralAutomata",
      "contractAddress": "0xacbD6089ac5d2dE7f49B53269416DbaeA4da9f27",
      "function": "updateBurner(uint256,address)",
      "arguments": [
        "1",
        "0x6B61bd7578DdB7357528f4AE7038EDAdb0dB7428"
      ],
      "rpc": "https://eth-mainnet.g.alchemy.com/v2/CerrIRj03uCgjmPm68XVOIzBvSrLbS-z",
      "transaction": {
        "type": "0x02",
        "from": "0x966685481e52b636ea474aa5c6ffb0ca20a7caf0",
        "to": "0xacbd6089ac5d2de7f49b53269416dbaea4da9f27",
        "gas": "0x105a2",
        "value": "0x0",
        "data": "0x0777ca3d00000000000000000000000000000000000000000000000000000000000000010000000000000000000000006b61bd7578ddb7357528f4ae7038edadb0db7428",
        "nonce": "0x16",
        "accessList": []
      },
      "additionalContracts": []
    },
    {
      "hash": "0xaec216d2678ae9a43c117ba0bb387b9c37b75da2ee95deb2ed30c745e1f97502",
      "transactionType": "CALL",
      "contractName": "ZooOfNeuralAutomata",
      "contractAddress": "0xacbD6089ac5d2dE7f49B53269416DbaeA4da9f27",
      "function": "transferOwnership(address)",
      "arguments": [
        "0x0aa0Bc25769C52e623D09A9764e079A221BeA2a1"
      ],
      "rpc": "https://eth-mainnet.g.alchemy.com/v2/CerrIRj03uCgjmPm68XVOIzBvSrLbS-z",
      "transaction": {
        "type": "0x02",
        "from": "0x966685481e52b636ea474aa5c6ffb0ca20a7caf0",
        "to": "0xacbd6089ac5d2de7f49b53269416dbaea4da9f27",
        "gas": "0xa2cf",
        "value": "0x0",
        "data": "0xf2fde38b0000000000000000000000000aa0bc25769c52e623d09a9764e079a221bea2a1",
        "nonce": "0x17",
        "accessList": []
      },
      "additionalContracts": []
    }
  ],
  "receipts": [
    {
      "transactionHash": "0x9f037f8dcbbd994eb81146d33a11d8bb48b7dfbbed5e8046113e632ad3ca9171",
      "transactionIndex": "0x6",
      "blockHash": "0x50f59714d8602aa3003496db51df0af04e1984c9d85d99c319b7c62c9c71b84f",
      "blockNumber": "0xfbe757",
      "from": "0x966685481e52B636ea474aa5C6ffB0cA20A7Caf0",
      "to": null,
      "cumulativeGasUsed": "0x214360",
      "gasUsed": "0x43014",
      "contractAddress": "0x6B61bd7578DdB7357528f4AE7038EDAdb0dB7428",
      "logs": [],
      "status": "0x1",
      "logsBloom": "0x00000000000000000000000000000000000000000000000000000000000000000000000000000000000000000000000000000000000000000000000000000000000000000000000000000000000000000000000000000000000000000000000000000000000000000000000000000000000000000000000000000000000000000000000000000000000000000000000000000000000000000000000000000000000000000000000000000000000000000000000000000000000000000000000000000000000000000000000000000000000000000000000000000000000000000000000000000000000000000000000000000000000000000000000000000000",
      "type": "0x2",
      "effectiveGasPrice": "0x3ce5c618c"
    },
    {
      "transactionHash": "0xd160399294643b1adf5ad12f92d8ad932a939732ab357699da38167e71ec007f",
      "transactionIndex": "0x23",
      "blockHash": "0x50f59714d8602aa3003496db51df0af04e1984c9d85d99c319b7c62c9c71b84f",
      "blockNumber": "0xfbe757",
      "from": "0x966685481e52B636ea474aa5C6ffB0cA20A7Caf0",
      "to": "0xacbD6089ac5d2dE7f49B53269416DbaeA4da9f27",
      "cumulativeGasUsed": "0x50e045",
      "gasUsed": "0x6ca93",
      "contractAddress": null,
      "logs": [],
      "status": "0x1",
      "logsBloom": "0x00000000000000000000000000000000000000000000000000000000000000000000000000000000000000000000000000000000000000000000000000000000000000000000000000000000000000000000000000000000000000000000000000000000000000000000000000000000000000000000000000000000000000000000000000000000000000000000000000000000000000000000000000000000000000000000000000000000000000000000000000000000000000000000000000000000000000000000000000000000000000000000000000000000000000000000000000000000000000000000000000000000000000000000000000000000",
      "type": "0x2",
      "effectiveGasPrice": "0x3ce5c618c"
    },
    {
      "transactionHash": "0x8f82814cc55811d05c5b2d4f1e217acc5972220e75c414b2e1021881dde08cf6",
      "transactionIndex": "0x24",
      "blockHash": "0x50f59714d8602aa3003496db51df0af04e1984c9d85d99c319b7c62c9c71b84f",
      "blockNumber": "0xfbe757",
      "from": "0x966685481e52B636ea474aa5C6ffB0cA20A7Caf0",
      "to": "0xacbD6089ac5d2dE7f49B53269416DbaeA4da9f27",
      "cumulativeGasUsed": "0x519db1",
      "gasUsed": "0xbd6c",
      "contractAddress": null,
      "logs": [],
      "status": "0x1",
      "logsBloom": "0x00000000000000000000000000000000000000000000000000000000000000000000000000000000000000000000000000000000000000000000000000000000000000000000000000000000000000000000000000000000000000000000000000000000000000000000000000000000000000000000000000000000000000000000000000000000000000000000000000000000000000000000000000000000000000000000000000000000000000000000000000000000000000000000000000000000000000000000000000000000000000000000000000000000000000000000000000000000000000000000000000000000000000000000000000000000",
      "type": "0x2",
      "effectiveGasPrice": "0x3ce5c618c"
    },
    {
      "transactionHash": "0xaec216d2678ae9a43c117ba0bb387b9c37b75da2ee95deb2ed30c745e1f97502",
      "transactionIndex": "0x25",
      "blockHash": "0x50f59714d8602aa3003496db51df0af04e1984c9d85d99c319b7c62c9c71b84f",
      "blockNumber": "0xfbe757",
      "from": "0x966685481e52B636ea474aa5C6ffB0cA20A7Caf0",
      "to": "0xacbD6089ac5d2dE7f49B53269416DbaeA4da9f27",
      "cumulativeGasUsed": "0x520d04",
      "gasUsed": "0x6f53",
      "contractAddress": null,
      "logs": [
        {
          "address": "0xacbD6089ac5d2dE7f49B53269416DbaeA4da9f27",
          "topics": [
            "0x8be0079c531659141344cd1fd0a4f28419497f9722a3daafe3b4186f6b6457e0",
            "0x000000000000000000000000966685481e52b636ea474aa5c6ffb0ca20a7caf0",
            "0x0000000000000000000000000aa0bc25769c52e623d09a9764e079a221bea2a1"
          ],
          "data": "0x",
          "blockHash": "0x50f59714d8602aa3003496db51df0af04e1984c9d85d99c319b7c62c9c71b84f",
          "blockNumber": "0xfbe757",
          "transactionHash": "0xaec216d2678ae9a43c117ba0bb387b9c37b75da2ee95deb2ed30c745e1f97502",
          "transactionIndex": "0x25",
          "logIndex": "0x8b",
          "removed": false
        }
      ],
      "status": "0x1",
      "logsBloom": "0x00000000000000000000000000000000000000000000000000808000000000000000000000000000000000000000000000400000000000000000000000000000000040000000000000000000000000000001000000000000000000000000000000000000000000000000000000000000010000000000000000000000000000400000000000000000000000000000000000000000000000000000000000000000000000000000000000000000000000100000000000000000000000000000000000000000000000000000000000000000000100000000800000000000000000000000000000100000000000000000000000000000000000000000800000000000",
      "type": "0x2",
      "effectiveGasPrice": "0x3ce5c618c"
    }
  ],
  "libraries": [],
  "pending": [],
  "path": "/home/arch/zona/broadcast/NCA.s.sol/1/run-latest.json",
  "returns": {},
  "timestamp": 1674950449,
  "chain": 1,
  "multi": false,
  "commit": "888c555"
}